:020000040800F2
:1000000000400020E52000081526000819260008F9
:1000100000000000000000000000000000000000E0
:100020000000000000000000000000003126000871
:1000300000000000000000003326000835260008FC
:1000400055210008552100083DDD00085521000814
:100050005521000849CD0008552100085521000808
:100060005521000855210008552100085521000898
:10007000316000085521000855210008552100086D
:1000800055210008552100080000000055210008F6
:100090005521000805E10008FD86000855210008EB
:1000A0005521000855210008552100085521000858
:1000B000ADDA0008000000005521000857210008B3
:0400C0002301000810
:1000C400BFF34F8F024A034BDA60BFF34F8FFEE753
:1000D4000400FA0500ED00E00120074BDA68024253
:1000E40009D1DA680018D20605D4D8680423184068
:1000F400421E9041181A70470020024010B5B024E7
:10010400FFF7EAFF2403012805D1002C05D0FFF7EF
:10011400E3FF013CF7E7002C00D1052010BDF0B54A
:100124001E002E4B85B00192984254D12C4B99421B
:1001340051D102272B4DFFF7E1FF042849D140227A
:10014400294C23693B43236165612369134323617C
:10015400FFF7D4FF2369BB432361042839D18023EB
:100164001B01ED18214B9D42E5D11E4DF822019B48
:1001740012069B185B59009300230393FFF7BEFFFD
:10018400042826D101222369174F134323616B46A8
:100194001B882B80FFF7B2FF04280ED1AB1C0393FE
:1001A400009B039A1B0C1380FFF7A8FF01223B69F5
:1001B40093433B61042805D00BE001223B69934340
:1001C4003B6106E0013E0435002E02D0074B9D4200
:1001D400CCD1FFF775FF05B0F0BDC04675E3094B00
:1001E40042F06A8100080008002002400000010873
:1008000002B4714649084900095C49008E4402BCA3
:100810007047C04603B47146490840004900095A70
:1008200049008E4403BC7047002243088B4274D3B6
:1008300003098B425FD3030A8B4244D3030B8B42E1
:1008400028D3030C8B420DD3FF22090212BA030CEA
:100850008B4202D31212090265D0030B8B4219D3CB
:1008600000E0090AC30B8B4201D3CB03C01A5241EB
:10087000830B8B4201D38B03C01A5241430B8B4233
:1008800001D34B03C01A5241030B8B4201D30B031C
:10089000C01A5241C30A8B4201D3CB02C01A524143
:1008A000830A8B4201D38B02C01A5241430A8B4206
:1008B00001D34B02C01A5241030A8B4201D30B02EF
:1008C000C01A5241CDD2C3098B4201D3CB01C01A09
:1008D000524183098B4201D38B01C01A5241430913
:1008E0008B4201D34B01C01A524103098B4201D301
:1008F0000B01C01A5241C3088B4201D3CB00C01A6E
:10090000524183088B4201D38B00C01A52414308E5
:100910008B4201D34B00C01A5241411A00D201460A
:10092000524110467047FFE701B5002000F0F0F893
:1009300002BDC0460029F7D076E7704703460B4357
:100940007FD4002243088B4274D303098B425FD3C8
:10095000030A8B4244D3030B8B4228D3030C8B42F4
:100960000DD3FF22090212BA030C8B4202D31212DA
:10097000090265D0030B8B4219D300E0090AC30BAF
:100980008B4201D3CB03C01A5241830B8B4201D35C
:100990008B03C01A5241430B8B4201D34B03C01A45
:1009A0005241030B8B4201D30B03C01A5241C30ABD
:1009B0008B4201D3CB02C01A5241830A8B4201D32E
:1009C0008B02C01A5241430A8B4201D34B02C01A18
:1009D0005241030A8B4201D30B02C01A5241CDD2BD
:1009E000C3098B4201D3CB01C01A524183098B4208
:1009F00001D38B01C01A524143098B4201D34B01F1
:100A0000C01A524103098B4201D30B01C01A524153
:100A1000C3088B4201D3CB00C01A524183088B42DA
:100A200001D38B00C01A524143088B4201D34B00C3
:100A3000C01A5241411A00D2014652411046704735
:100A40005DE0CA0F00D04942031000D3404253403A
:100A500000229C4603098B422DD3030A8B4212D3FA
:100A6000FC22890112BA030A8B420CD3890192112C
:100A70008B4208D3890192118B4204D389013AD069
:100A8000921100E08909C3098B4201D3CB01C01A3E
:100A9000524183098B4201D38B01C01A5241430951
:100AA0008B4201D34B01C01A524103098B4201D33F
:100AB0000B01C01A5241C3088B4201D3CB00C01AAC
:100AC000524183088B4201D38B00C01A5241D9D2C4
:100AD00043088B4201D34B00C01A5241411A00D245
:100AE0000146634652415B10104601D34042002B41
:100AF00000D54942704763465B1000D3404201B5C0
:100B0000002000F005F802BD0029F8D016E7704774
:100B10007047C0468446081C6146FFE71FB500F0D9
:100B200047FB002801D40021C8421FBD10B500F0CA
:100B3000D3FA4042013010BD10B500F039FB002857
:100B400001DB002010BD012010BDC04610B500F033
:100B50002FFB002801DD002010BD012010BDC04684
:100B600010B500F0E1FA002801DC002010BD0120E2
:100B700010BDC04610B500F0D7FA002801DA0020F9
:100B800010BD012010BDC0469E2110B5C905041C32
:100B9000FFF7F0FF002803D1201C00F0E7FD10BD97
:100BA0009E21201CC90500F05BFC00F0DFFD8023C6
:100BB0001B069C466044F2E7F8B54A024302440033
:100BC0004E00C50F240E28009B09360EC90F92094E
:100BD0008D4259D0A01B002800DC8DE0002E1AD1D8
:100BE000002A00D079E05A0704D00F221A40042AC4
:100BF00000D004335A0138D50134FF2C00D189E0EC
:100C000028009B015B0AE4B25B02E4055B0A234314
:100C1000C0071843F8BDFF2CE5D08021C9040A4362
:100C20001B2800DD89E016002021C640081A8240FA
:100C3000511E8A4132439B1A5A0114D59B019E09C9
:100C4000300001F031FA05388640844265DC041B2F
:100C5000330020200134E340041BA640721E96415D
:100C600000243343BFE75A07BFD1DF082800FF2C19
:100C70002FD1002F00D187E08022D20313003B4305
:100C80005B025B0AFF24BFE7A11B002949DD002EA0
:100C900029D0FF2CA7D08026F60432431B2900DD83
:100CA0008DE017002026CF40711A8A40511E8A41DC
:100CB0003A439B185A01D6D50134FF2C64D0012247
:100CC00076491A405B080B4013438CE7031ECAD1D8
:100CD00000207B025B0AE4B296E701380028AAD024
:100CE000FF2C9DD17FE7002A00D17CE70139002944
:100CF000DFD0FF2CD2D176E7002820D1601CC0B213
:100D0000012853DD80279E1AFF0437402FD0D61AC2
:100D10000D0095E72800002376E7614B241A334045
:100D200061E700294DD1611CCEB2012E2FDDFF29D4
:100D30002AD09B185B080C0055E701227BE7002CAA
:100D40001BD1002B5BD0C04300280CD0FF2E7ED0DF
:100D50001B2800DD92E01D002024C540201A83409E
:100D6000581E83412B43D31A34000D0064E7002E34
:100D700000D065E700200024ABE7FF2E67D0802479
:100D8000E40440422343E3E7FF2400233CE7002C34
:100D900061D1002B7ED0002A00D124E79B185A0194
:100DA00000D460E73E4A0C0013401CE7002C1ED123
:100DB000002B2FD1002A66D013000D0013E701226B
:100DC00077E7002C1FD1002B5AD0C94300290BD044
:100DD000FF2E50D01B295FDC1F002024CF40611A5A
:100DE0008B40591E8B413B439B18340062E7002B1C
:100DF0001CD1002A4AD013000D00FF24F3E6130093
:100E000034000D00EFE6FF2E35D08024E404494283
:100E10002343DFE7002A00D1E5E68027981AFF0484
:100E2000074000D152E7D31A0D00DCE6FF24002A68
:100E300000D1D8E68020DB08C003034204D0D208EA
:100E4000024201D113000D00DB00FF24CBE61300AA
:100E5000FF240D00C7E6002B0DD0FF24002A00D18F
:100E6000C1E68021DB08C9030B42EDD0D2080A425B
:100E7000EAD11300E8E71300FF24B4E6012372E788
:100E800013003400AFE60027002022E7802700206F
:100E9000FF03F1E61300A6E60123A5E7FFFFFF7DB0
:100EA000FFFFFFFBF0B5564644465F464D46F0B4A3
:100EB00044024600C70F83B08846650A360EBA461C
:100EC0003DD0FF2E22D00023EC00802599469B4682
:100ED000ED0425437F3E43465C025800DB0F640A65
:100EE000000E984636D0FF2830D080230021E40041
:100EF000DB041C437F38301A0190484642460843C1
:100F0000724E800030587A4013008746002D44D13D
:100F100008239946063B9B46DDE70122FF2000247B
:100F20001A406402C305640AD2071C43144320001C
:100F300003B03CBC90469946A246AB46F0BD002D9E
:100F400020D104239946033B9B46C4E7002C17D1CC
:100F5000022102E0002C0AD10121321A01924A46F4
:100F600043460A435A48920082587B4097462000E5
:100F700001F09AF8431F76309C4040420021BAE7C6
:100F80000321B8E7280001F08FF8431F9D4000239C
:100F90007630464299469B469DE70C239946093B8D
:100FA0009B4698E780240022E403FF20B9E7002451
:100FB000C2468B465A465346022AAED0032A7DD0FB
:100FC000012A31D1012200201A400024A9E7012280
:100FD000101A1B2856DD1A4000200024A1E78023A8
:100FE000DB031D424BD18023DB032B435C02640AED
:100FF0003A00FF2095E76D016001854230D2019AE9
:101000000024013A01921B220127290064006D008F
:10101000002901DBA84201D82D1A3C43013A002ADD
:10102000F3D16A1E95412C4301987F300028CEDD14
:10103000620704D00F222240042A00D00434220187
:1010400003D5244A019814408030FE2800DD64E76F
:101050000122A401640AC0B21A4062E72C00A9E789
:101060002D1A1A220124CFE76B02BCD5002480235D
:10107000DB031C436402640A4246FF2051E71C4222
:10108000B3D1F4E721002022C140101A8440621E2F
:1010900094410C43620704D00F222240042A00D05E
:1010A0000434620104D5012201201A40002438E7EB
:1010B0000122A401640A1A40002032E78023DB03E6
:1010C0001C436402640A5246FF202AE720F7000806
:1010D00060F70008FFFFFFF7430270B542004C00C5
:1010E0005D0AC30F4802120E460A240EC90FFF2ADA
:1010F0000FD0FF2C11D00120A24200D070BDB5420C
:10110000FCD18B420DD0002AF8D12800431E984113
:10111000F4E70120002DF1D1EBE70120002EEDD105
:10112000E9E70020EAE7C0464302F0B542005D0A65
:10113000C30F4802440A4800120E000EC90FFF2ACE
:101140001FD0FF2822D0002A09D16E426E4100280C
:101150000FD1002C0DD10020002D09D005E0002872
:1011600001D1002C01D08B4213D0584201231843E7
:10117000F0BD002EF7D048424141012049420843CA
:10118000F6E7002DDDD002204042F1E7002CDAD056
:10119000F9E78242E9DC04DBA542E6D80020A5425B
:1011A000E6D25842434101205B421843E0E7C04683
:1011B0004302F0B542004C005E0AC30F4802120E13
:1011C000450A240EC90FFF2A17D0FF2C19D0002A78
:1011D0000BD170427041002C17D0002807D0484234
:1011E0004141012049420843F0BD002C13D08B42FD
:1011F00014D0584201231843F6E70220002EF3D101
:10120000E3E70220002DEFD1E1E7002DE5D100203A
:10121000002EE9D0EDE7002DE9D1EAE7A242E8DCB3
:1012200004DBAE42E5D80020AE42DDD25842434155
:1012300001205B421843D7E7F0B557464E46454676
:101240004300E0B446028846760A1F0EC40F002F02
:1012500047D0FF2F25D0002380259A469946F600D7
:10126000ED042E437F3F434642465D02D20F5B00B2
:101270006D0A1B0E904640D0FF2B39D080220020F3
:10128000ED00D20415437F3BFB1842465746591CDC
:1012900062408C4607430F2F5CD86F49BF00C95985
:1012A0008F46002E45D108239A46063B9946DAE739
:1012B000424602282DD0032800D1C3E0012800D0E7
:1012C000A2E0002500260240D4B27602ED05760A9F
:1012D0002E43E407264330001CBC90469946A246A4
:1012E000F0BD002E1AD104239A46033B9946BAE773
:1012F0002A00511E8A41901CC6E70120002DC3D050
:10130000280000F0D1FE431F76309D40434200206C
:10131000BAE70124FF2514400026D6E7300000F08C
:10132000C3FE431F9E400023763047429A469946AB
:1013300099E70C239A46093B994694E780260024B6
:10134000F603FF25C1E735004846B2E73500220025
:101350004846AEE72904090C0800370C3604360C61
:101360002C0C7943704367437443060C6418361998
:10137000B14203D980214902884647440004000C49
:10138000310409188D01681E8541890E2943350CE9
:10139000ED19AD010D43290104D5012369081D4054
:1013A00063460D4319007F31002925DD680704D00D
:1013B0000F202840042800D00435280103D52749F0
:1013C00080330D401900FE29A3DC0124AD016E0A13
:1013D0001440CDB279E78020C003064207D0054211
:1013E00005D128434602760A4446FF256DE70643A9
:1013F0007602760AFF2568E70124611A1B2905DDBC
:1014000014400025002660E76346CBE72E0020232A
:10141000CE40591A8D406B1E9D412E43730704D058
:101420000F233340042B00D00436730104D501246C
:1014300001251440002648E70124B601760A14402D
:10144000002542E780260124F6032E437602760A21
:101450001440FF2539E7C046A0F70008FFFFFFF75B
:10146000F8B54A024E0043024400240EC50F9B0902
:10147000360EC90F9209FF2E00D183E001204140B2
:10148000A01BA9425CD0002800DC95E0002E1CD1F6
:10149000002A00D081E05A0704D00F221A40042A03
:1014A00000D004335A013BD50134FF2C00D191E028
:1014B00001209B015B0AE4B205405B02E4055B0A84
:1014C000ED0723432B431800F8BDFF2CE3D0802108
:1014D000C9040A431B2800DD90E016002021C64005
:1014E000081A8240511E8A4132439B1A5A0115D56F
:1014F0009B019E09300000F0D7FD053886408442EC
:101500006CDC041B330020200134E340041BA640A4
:10151000721E964100243343BDE70D005A07BCD12B
:10152000DF0801231D40FF2C33D1002F00D190E0B4
:101530008022D20313003B435B025B0AFF24BCE71B
:1015400000284FDD002E2ED0FF2CA4D08025ED04E6
:101550002A431B2800DD97E016002025C640281AE4
:101560008240501E824132439B185A01D5D5013426
:10157000FF2C6DD001227B481A405B0803401343C7
:101580000D0088E7002A00D07AE777E7031EC5D16F
:1015900000257B025B0AE4B28FE701380028A4D063
:1015A000FF2C97D177E7002A00D174E70138002893
:1015B000DAD0FF2CCDD16EE7002821D1601CC0B25B
:1015C000012858DD80279E1AFF0437402FD0D61AF5
:1015D0000D008FE701231D4000236EE7624B241AA4
:1015E000334058E7002851D1601CC6B2012E33DDCC
:1015F000FF282DD09B185B0804004CE7012274E7FC
:10160000002C1AD0FF2E1FD08024E4044042234334
:101610001B2800DD96E01D002024C540201A8340D1
:10162000581E83412B43D31A34000D005EE7002E71
:1016300000D05FE700250024ABE7002B44D0C04377
:101640000028F0D0FF2EE3D11300FF240D0022E785
:101650000D00FF24002330E7002C5DD1002B7DD04E
:10166000002A00D117E79B185A0100D456E73E4ADA
:10167000040013400FE7002C1ED1002B2FD1002AAD
:1016800065D013000D0006E701226DE7002C1FD185
:10169000002B59D0C04300280BD0FF2E4FD01B2861
:1016A0005EDC1D002024C540201A8340581E834163
:1016B0002B439B18340058E7002B1CD1002A49D03B
:1016C00013000D00FF24E6E6130034000D00E2E6EF
:1016D000FF2E34D08024E40440422343DFE7002A75
:1016E00000D1D8E68027981AFF04074000D14DE7C3
:1016F000D31A0D00CFE6FF24002A00D1CBE68020CC
:10170000DB08C003034204D0D208024201D1130017
:101710000D00DB00FF24BEE6002B10D0FF24002AC2
:1017200000D1B8E68020DB08C003034203D0D20812
:10173000024200D11300DB000D00FF24ABE61300D2
:10174000FF24A8E601236EE713003400A3E6002778
:1017500000251EE780270025FF03E9E613009AE62F
:101760000123A6E7FFFFFF7DFFFFFFFB4302590AAE
:101770004300C20F1B0E00207E2B0EDD9D2B0DDCC7
:10178000802000040143952B0BDC9620C31AD9401E
:101790000B005842002A00D118007047034BD018A4
:1017A000FBE7963B99400B00F3E7C046FFFFFF7F46
:1017B00070B5002830D0C317C5185D40C40F28008D
:1017C00000F072FC9E231B1A962B0DDC9622D21A77
:1017D00095406A02520AD8B25202C005520AE40782
:1017E00002432243100070BD992B19DC9922D21AB2
:1017F0009540124A2A40690704D00F210D40042D5C
:1018000000D00432510103D50C4B1A409F231B1A00
:101810009201520AD8B2DFE7002400200022DBE761
:1018200005222E00121AB921D6402A00C91A8A4070
:10183000551EAA4135001543DBE7C046FFFFFFFBFD
:1018400070B5041E28D000F02FFC9E231B1A962B87
:101850000ADC9622D21A94406202520AD8B252028C
:10186000520AC005104370BD992B18DC9922D21A78
:101870009440114A2240610704D00F210C40042CEF
:1018800000D00432510103D50B4B1A409F231B1A81
:101890009201520AD8B2E2E700200022DFE70522D7
:1018A0002500121AB921D5402200C91A8A40541EB7
:1018B000A2412C001443DCE7FFFFFFFBF0B55646C6
:1018C0004D4644465F46F0B41D000E034C00CB0F5E
:1018D00087B0070092468146360B640D98466AD061
:1018E0006D4B9C4235D08022430F12041343F60007
:1018F0001E43C3009946694B00279C46002364445D
:1019000002932B0368001B0BED0F51469B46400DC5
:10191000009500D178E0604B98426CD05B46DA00CD
:101920004B0F802109040B4313439B465346D900B8
:101930005A4B9C46002360444246201A6A40924615
:1019400001901F430F2F00D9B0E05548BF00C05988
:101950008746374300D088E00023994602330827A2
:1019600000260293CDE74346B34649460093029BC7
:10197000009A9246022B00D0BFE10021534601227B
:10198000002689461A40444B002136030C0D2405DD
:10199000360B2643434C1B0526401E437600D207D8
:1019A000760816434846310007B03CBC904699463D
:1019B000A246AB46F0BD330003434FD0002E00D10A
:1019C000BCE1300000F070FB03000B3B1C2B00DD82
:1019D000ADE11D220100D31A08393A008F408E4034
:1019E000DA40B9461643304B00279C46002360443A
:1019F0004442029385E753465A4613432CD10023B1
:101A000000219B46023397E70B4320D05B46002B17
:101A100000D19EE1584600F047FB03000B3B1C2B16
:101A200000DD8FE102005946083A91408B461D21A6
:101A3000CB1A5146D9400B0059460B4351469B46A1
:101A40009140194B9C4660444042002374E70023B8
:101A500000219B4601336FE703236DE7002399467E
:101A600001330427002602934BE703230C2702933C
:101A700047E70122D51A382D00DCB0E153461A4061
:101A800000210023002689467EE700238026994610
:101A900000223603004B77E7FF07000001FCFFFF41
:101AA000E0F70008FFFF0F80F30300005E4500D958
:101AB00072E100D16DE1019B4D46013B0193002392
:101AC000340002935B461E020B0E1E430B0203936F
:101AD000330C994633041B0C494620000093FEF753
:101AE000A3FE009B3700434306004946200098466A
:101AF000FEF720FF2C0C09040C43A04509D9E4197A
:101B0000731EA74200D95CE1A04500D859E1023E0E
:101B1000E4194346E41A49462000FEF785FE030017
:101B2000009A80465343494620009B46FEF702FF39
:101B30002A040904120C0A4393450DD94346D219CD
:101B4000013B974200D93AE1934500D837E102239F
:101B50005B429C46D219E0445B46D21A43463604A7
:101B600033439B460399180C0B0C1D000593090485
:101B70005B46090C0C001B041B0C444304915943A5
:101B80006B4368431B190D0CEB189C4203D980244E
:101B90006402A44660441C0C09041B04090C2018B0
:101BA0005D18824200D2DEE000D1D7E0161A029B17
:101BB0009C465D1BAC459B415B42F61AB74200D187
:101BC00006E149463000FEF72FFE009B0400434328
:101BD000494630009846FEF7ADFE2E0C09040E4330
:101BE000B04509D9F619631EB74200D9F3E0B045F4
:101BF00000D8F0E0023CF6194346F31A49461800B3
:101C00000293FEF711FE009B0600434349460298EB
:101C10009846FEF78FFE2D0409042D0C0D43A845B0
:101C200009D9ED19731EAF4200D9D6E0A84500D8F6
:101C3000D3E0023EED192404210043463143049EC3
:101C4000059A3000ED1A0B040C0C1B0C584366432C
:101C5000534354439A19030C9B189E4203D9802284
:101C60005202944664441A0C00041B04000C14191C
:101C70001B18A54250D34DD001231943964A019B0E
:101C800094466344002B00DCF3E64A0709D00F2298
:101C90000A40042A05D00A1D8A42894149428B44E0
:101CA00011005A46D20108D55A468C4B1A40934629
:101CB0008022D2009446019B6344894A934200DD0E
:101CC0005BE65A46C90850070843560251460122AE
:101CD0005B058146360B5B0D0A4055E680231B03EE
:101CE0001E4211D05A461A420ED15E461E4336039A
:101CF000360B2A0089467B4B46E6032B00D1E1E0F8
:101D0000012BBBD11A40BBE61E433603360B4246BD
:101D1000744B39E6002BB1D07D194A1EAF4252D91F
:101D20001100A542A8D1039A9A42A5D1A6E70300C3
:101D30003E00283B9E400023994654E600F0B4F94B
:101D4000203041E603005246283B9A40002193464A
:101D500077E6504600F0A8F920305EE6029B0026A8
:101D6000AB4200D323E7039E0299B4466144884600
:101D7000B045B6415B467642F619B218013B029176
:101D8000974213D290424FD800D18EE0161A9B464C
:101D90000DE7894500D28EE674084B46F6073500FC
:101DA0005B081D434B46DB0702938BE69742EDD160
:101DB0000399029CA142E5D93E1A9B46F7E6984654
:101DC000CAE61E00A5E6AC423ED874D0110053E727
:101DD0000121494252E71C000EE71E002BE71F2D90
:101DE0003CDC20230A0058465B1B9840EA4099409F
:101DF0000243481E81415E461143EE404B0709D025
:101E00000F230B40042B05D00B00191D99429B4159
:101E10005B42F61833023CD55346012200211A409A
:101E2000002601238946AFE502235B429C46039CC2
:101E3000E344A446029B63449846A045B6417642DB
:101E4000F6190293B218B1E603988A1E4100814246
:101E5000B6417642F619AD19039161E71F2252424D
:101E6000D31A5A46DA401300202D29D04022584672
:101E7000551BA8400143481E814107200B431840D1
:101E80000026002809D00F2200261A401900042A33
:101E9000BBD10B0070077602360BDB080343994673
:101EA000012253461A4000236EE502998D42BBD8A9
:101EB0009B4600267BE603989842C5D3110032E783
:101EC0000020D7E780265B4636031E433603360BD9
:101ED000009A8946034B57E5FF030000FFFFFFFE12
:101EE000FE070000FF0700004200120E511C4302D3
:101EF000C9B270B55D0AC40F012915DDE021890062
:101F00008C466D071B0B6244002128000D0D2D052A
:101F10002B431C4D52052B40520813435B00E40732
:101F20005B082343190070BD002A15D1002D1FD076
:101F3000280000F0B9F80A281DDC0B232A001B1A20
:101F4000DA4013000200153295400F4A1B03121AA3
:101F500052051B0B520DD7E7002D06D080221B0B1C
:101F6000120313436D07094ACEE7084A0023CBE763
:101F700000220023C8E703000B3B9D402B000025F7
:101F8000E3E7C046FFFF0F8089030000FF07000062
:101F90004B0070B55E0D0C03751C640A420F6D0595
:101FA0002243C90FC4006D0D012D2ADD3B4BF318F0
:101FB000FE2B1ADC002B42DD8001451EA841D20019
:101FC0001043620F0243500704D00F201040042832
:101FD00000D004328020C004104021D00133FF2BF8
:101FE00003D09201520ADBB201E0FF230022520229
:101FF000520ADB0513435B00C9075B080B4318005B
:1020000070BD002E07D01443EFD08020D200800492
:102010000243FF23D7E722430023002A03D00522EF
:10202000D208FF2B03D05202520ADBB2DFE7002AAC
:1020300032D08020C00302435202520AD7E7180070
:10204000173014DB8020000402431E20C01A1F2812
:102050000FDC2500124BF3189D406E1EB5419A40CF
:102060002B0013432200C2401A430023ABE7002396
:10207000D5E702256D42EB1A1500DD40202809D076
:10208000084BF3189A401443621E94412200002327
:102090002A4398E70022F6E70022A8E780FCFFFF2A
:1020A00082FCFFFFA2FCFFFF1C2101231B049842BE
:1020B00001D3000C10391B0A984201D3000A0839D9
:1020C0001B09984201D30009043902A2105C401890
:1020D0007047C04604030202010101010000000034
:1020E000000000001348854604200168090E1F22E5
:1020F000914205D110480121016010480021016082
:10210000002103E00E4B5B58435004310D480E4B49
:1021100042189A42F6D30D4A02E0002313600432BB
:102120000B4B9A42F9D300F089FA0DF0D7F802F080
:102130007FFEFEE700400020181002400000014032
:10214000ACF8000800000020140500201405002051
:102150009C2B0020FEE710B501F0CEFC10BD000066
:1021600010B5024BDB68984710BDC0460800002040
:102170000022014B1A70704714050020014B18789B
:102180007047C04614050020014801307047C04622
:102190001405002070B5104C060021780020072996
:1021A00018D9651C280000F0D3F92278AB5C002B0D
:1021B00003D1AB185B78002B02D00020207009E01F
:1021C000D9B28A4203D9595DF1540133F8E70023AB
:1021D0000120237070BDC0461405002070B5002496
:1021E000094B41181A785E1C884208D0FF2A06D095
:1021F0000478551CB45401300124EAB2F4E7002CF1
:1022000000D01A7070BDC0461405002010B50648F5
:1022100001F0E0FA80200021000402F06DFA0020B5
:1022200002F036F910BDC0461406002010B5034B6D
:10223000034A0449044800F05EFB10BD380000204A
:10224000700000201C00002014060020802010B523
:102250000121000402F050FA002002F047F980202A
:102260000121000502F048FA8020800501F0CEFD32
:10227000012001F0BFFD012001F0B0FD10BD1F23C2
:1022800007B501A803701E3B4370837002F062F82B
:1022900007BD10B5FFF7F3FF10BD1F2307B501A859
:1022A00003701E3B43700023837002F053F807BD98
:1022B00000207047F0B50027094B411888420CD028
:1022C0001C68084E621C1A6005783555802464002D
:1022D000A24200D11F600130F0E70020F0BDC046EF
:1022E000E4080020F008002010B5FFF777FF002079
:1022F00010BD000010B5202814D0212825D1144B82
:102300001A780A701A68120A4A701A68120C8A70CF
:102310001A68120ECA701A790A715A794A719B7931
:102320008B7112E04A780C788B78120222431B04DE
:1023300013431A00CB781B061343054A13600B792D
:1023400013714B7953718B799371002010BDC04686
:102350000000002000207047122301480B807047C6
:1023600024F30008042302480B8012307047C04653
:1023700024F3000810B5044C0A000448210000F0C2
:10238000A8FC200010BDC0468907002020F80008E6
:1023900010B5044C0A000448210000F09AFC20000B
:1023A00010BDC0468907002045F8000810B5044C50
:1023B0000A000448210000F08CFC200010BDC0463B
:1023C0008907002059F8000810B5044C0A00044899
:1023D000210000F07EFC200010BDC04689070020CF
:1023E00066F8000810B5044C0A000448210000F00B
:1023F00070FC200010BDC0468907002071F800085D
:10240000704700000821054A13689BB20B43136014
:10241000136804399BB20B4313607047405C004063
:102420000421044A13689BB28B431360BF231B0231
:1024300013607047405C004010B5244C072800D062
:1024400020702078C0B205283DD8FEF7D9F9030BDB
:1024500012161F2A6368002B02D1FFF7E1FF32E05A
:10246000052331E0FFF7DCFF04232370033B6360A7
:102470002BE002236370013326E06378013BDBB27B
:1024800063706378002B20D104331DE01021104AC3
:1024900013689BB20B43136005232370DB18637032
:1024A00013E06378013BDBB263706278D2B2002A3A
:1024B0000BD1102006490B689BB283430B600623A7
:1024C0002370626001E00623237010BD7C070020AA
:1024D000405C00407047704710B5482007F096FEFA
:1024E000BFF34F8F024A034BDA60BFF34F8FFEE713
:1024F0000400FA0500ED00E070477047031C28282F
:1025000000D92823024ADBB29B0098587047C04686
:102510003CF30008F7B500240C4F061CA500E3B2FD
:10252000311CE8590193FEF711FB002806D07D19F4
:102530006968301CFEF700FB002804D10134282C08
:10254000ECD1002000E00198FEBDC0463CF300083D
:10255000F0B50A000025154B1C88154B002A1CD02D
:102560008D1A465DFF251D401B0A1B026E40F518A3
:10257000ABB2082501261E40B44667465E10B3B2D2
:10258000002F02D00B4B5E40B3B2013DEDB2002DE7
:10259000F0D1013AD2B20135E0E7002D00D01C1C89
:1025A00044544118240A4C70F0BDC04680F800081D
:1025B000FFFF000001A0FFFF002382B0019001AAED
:1025C0009A5CCA540133042BF9D102B0704700233E
:1025D000CA5CC2540133042BFAD170470B780370E4
:1025E0004B784370704782B06B46DA1D002313703E
:1025F0001378032B03D813780133DBB2F7E702B06B
:1026000070470000024B8000C01800687047C04649
:10261000ACF7FF1F70470000BFF34F8F024A034B18
:10262000DA60BFF34F8FFEE70400FA0500ED00E02B
:102630007047704710B50BF0F1FC10BD70B5012567
:102640002F4C002623682B43236062682D4B1340D8
:10265000636022682C4B1340236022682B4B13408D
:10266000236062682A4B13400F226360E36A93433E
:10267000E362226B274B13402363636BAB436363BB
:10268000A6600BF0C3FE244BA84237D11121234A88
:102690001E70116062686260626862606168204AF0
:1026A0000A4098216260626849030A43802162609F
:1026B000226849040A43802122601A4A890420685A
:1026C000084204D1013A002AF9D102321A700321DA
:1026D0000C2062688A436260626801390A43626062
:1026E000104A61680140082909D0013A002AF8D14E
:1026F0001A78022A03D003221A7000E01D7070BD00
:10270000001002400CB8FF08FFFFF6FEFFFFFBFFC2
:10271000FFFFC0FFACFEFFFFA8000020002002402A
:10272000FF7FC0FF41420F00030010B50400FC33DF
:102730001B6E1B699847E3780020A37010BD10B58D
:102740008378C37004238370FC30036EDB68984782
:10275000002010BD0300FC33DB6D10B5DB69002BDE
:1027600000D09847002010BD002210B51100402372
:10277000040000F029FE802300221900200000F050
:1027800023FE002340221900200000F038FE4022E2
:1027900080210023200000F032FE0123207BA37063
:1027A000FC34236E5B689847002010BD13B5694662
:1027B000040000F071FA6B4619781F230B40012BBF
:1027C0000DD0002B06D0022B0ED16946200000F060
:1027D00006FA0EE06946200000F0FCF809E06946C0
:1027E000200000F0DDF904E07F232000994300F091
:1027F00057FF002016BD0000F8B504000D1E39D1AA
:102800004378022B2BD1426B466AB24206D9921B07
:102810004263816A92B200F0A9F835E0876B31001B
:102820003800FEF787F80D1E0AD1BE4208D8E36BC8
:102830009F4205D20A00200000F098F8E56323E0EB
:102840002300FC33DB6DDB68002B04D0A278032A65
:1028500001D120009847200000F0B1F814E0042BCB
:1028600012D10A4E316800290ED0C9B200F072FFB1
:10287000356009E00300FC33DB6D5B69002B03D09E
:102880008278032A00D198470020F8BD84070020F1
:1028900010B50400002922D14378032B29D102006E
:1028A000B832D369D06883420AD91B1AD36111693F
:1028B00082B2984200D99AB2200000F06EF818E077
:1028C0002300FC33DB6D1B69002B04D0A278032AA4
:1028D00001D120009847200000F067F809E00300CC
:1028E000FC33DB6D9B69002B03D08278032A00D177
:1028F0009847002010BDF7B50400250017001E0002
:102900000191FFF7A3FC019BFC356B66EF652E661A
:10291000FFF776FD200000F02BFD2B6E1B6898471B
:10292000200000F04BFF2000FFF7B3FCF7BD10B50F
:102930000400FC34E36D1B689847236E9B6898473E
:10294000002010BD030010B5FC33DB6D5B689847B9
:10295000002010BD10B51300826342630222427052
:102960000A00002100F04FFE002010BD10B513003A
:102970000A00002100F047FE002010BD13000200F5
:10298000D83210B5043A53601360032242700A0033
:10299000002100F0FAFD002010BD10B513000A0060
:1029A000002100F0F2FD002010BD042310B543709B
:1029B00000231A00190000F026FE002010BD052398
:1029C00010B5437000231A00190000F0DEFD00204E
:1029D00010BD000073B5040048780D00092800D927
:1029E000D5E0FDF70DFFACCBD4BCD45E05D49D760D
:1029F0004B8818120138062800D9C8E0FDF700FFFF
:102A000004121BC7C7C7C7002300FC335B6E01AEAF
:102A10001B68207B31009847EB88402B30D1383B36
:102A200033802DE02600FC36F36D207B1B6A01A964
:102A30009847B06624E0D8B2052800D9A7E0220064
:102A4000E368FC32FDF7DCFE03070B0F1317D8B267
:102A5000536E5B6812E0D8B2536E9B680EE0D8B23A
:102A6000536EDB680AE0D8B2536E1B6906E0D8B239
:102A7000536E5B6902E0D8B2536E9B6901A9984717
:102A800001AE3188002900D185E0EA88002A00D112
:102A900081E00B1C914200D9131C9AB233800100D3
:102AA00049E08B88002B72D1CB88002B6FD14D88E9
:102AB0007F331D40A378032B69D0384B257120004C
:102AC0001D60FFF772FF0223002D00D10123A370C8
:102AD00061E08978314D2971012958D8A378022BFA
:102AE00002D0032B07D052E0002943D00121032359
:102AF0002170A37010E0002906D102232170A37079
:102B00002000FFF71FFF35E02178012932D0200097
:102B1000FFF718FF297921702000FFF708FF29E04F
:102B2000CA8800210191012A32D1A378022B14D046
:102B3000032B2DD121002000FFF70CFF2BE00021FB
:102B4000A3780191023B012B22D801230193A368B2
:102B50008B4201D003230193022201A9EBE74B88AA
:102B6000012B18D1A3602300FC33DB6D29009B6887
:102B7000200098472000FFF718FF0CE0A378023BE5
:102B8000012B04D84B88012B05D10023EAE7002153
:102B9000200000F085FD002076BDC046840700209F
:102BA00070B5837804000E00032B11D10B79012B33
:102BB0000ED80300FC33DB6D9B689847F388050053
:102BC000002B0AD1002808D12000FFF7EEFE04E018
:102BD0000021200000F064FD0025280070BD37B5FD
:102BE00000220D00019204006B788888C1B2012B8D
:102BF00011D0934229D0032B4CD1A378022B2AD099
:102C0000032B20D16B88002B12D14B0610D0200053
:102C100000F046FD0CE0A378022B1CD0032B12D150
:102C20006B88002B04D14B0602D0200000F06CFD15
:102C30002300FC33DB6D29009B68200098472000AF
:102C4000FFF7B3FE26E0110021E0A278022A02D0AD
:102C5000032A03D01AE04B0619D11BE028230206F1
:102C600009D57F2211404B43E3189B7E002B07D0F0
:102C70000123019304E059436118BA310B78F5E759
:102C8000022201A92000FFF765FE03E019002000E1
:102C900000F006FD00203EBD037C0B70437C4B70B2
:102CA000C37C827C1B02D3184B80437D027D1B02B8
:102CB000D3188B80C37D827D1B02D3189BB2CB803F
:102CC000C36301234370704710B5002100F0E8FC96
:102CD00010BD30B50023002818D0C45C5D1C002C4A
:102CE00001D02B00F9E7DBB25B00023313800B70DD
:102CF00003234B70013B0578002D07D05A1CCD549F
:102D0000D2B202330130DBB28C54F4E730BD0000A4
:102D100070B5074C2068FF2807D0064B064A191DDE
:102D200095681A68A847FF232360002070BDC0463D
:102D30006C00002088080020080000204323014880
:102D40000B807047E0F3000810B5C02300228121FA
:102D5000040000F039FB802300225B008221200068
:102D600000F032FB882300225B000321200000F0EA
:102D70002BFB022340228121200000F040FB022394
:102D800040220321200000F03AFB08228221032385
:102D9000200000F034FB064B1B689847054A40238F
:102DA0000C320321200000F0F0FB002010BDC046D3
:102DB0000800002088080020282370B5040059432B
:102DC0004118084DD0310968074B0C35280089B2ED
:102DD0001B6998472A0040230321200000F0D5FBFF
:102DE000002070BD880800200800002010B50400F5
:102DF000812100F086FB0321200000F082FB82216C
:102E0000200000F07EFB024B5B689847002010BD5D
:102E100008000020F8B560240B7806000D001C4067
:102E200028D0202C22D1CC884878002C18D05BB236
:102E30002449002B0BDA244B0F1D220039009B681C
:102E40009847EA8839003000FFF784FD06E01F4B01
:102E500010C1186022003000FFF790FD00242FE021
:102E6000194B22009B682100984729E0FFF72CFFAF
:102E7000022425E04B780A2B13D00B2B18D0062BFD
:102E80001ED14B8812491B12212B07D1EB881A1C2B
:102E90003A2B00D93A2292B2123105E009313A2296
:102EA00002E0012207494C313000FFF753FD07E0F3
:102EB0008B78002B02D1034BDC6401E0FFF704FFA9
:102EC0002000F8BD88080020080000206C000020C9
:102ED000E0F30008204A70B5136D1100002B02D0FA
:102EE0000133136536E0136554321278012A31D06C
:102EF00080228C6D5200944200D18B658C6DCB6D1D
:102F00009C4203D1002354310B7023E09C4202D930
:102F1000121B0A6601E01B1B0B660B6EA2B2402B54
:102F200005D9403B40340B668C65402309E0E4182A
:102F30008C6500240C66402B01D09BB201E001247B
:102F40004C660C000125683154348A1881212570A3
:102F500000F059FB002070BD88080020154B70B5AB
:102F60001C00543422781900012A20D11A6E002A3C
:102F700008D1596E012903D15A668031130014E03B
:102F8000227014E09B6D9CB2402A05D94033403A30
:102F90008B650A66402305E08D6D93B252198A65F0
:102FA00000220A6668310A19812100F02CFB0020FA
:102FB00070BDC04688080020014B18607047C046AD
:102FC000405C0040014B18607047C046445C0040C4
:102FD00007239843014B18607047C046505C00407F
:102FE000024B8000C018006880B27047005C00404F
:102FF0000B00054A800080180168044A11401943FB
:1030000089B201607047C046005C00408F89FFFFB5
:10301000084B8000C0180268074B13401022114271
:1030200000D053402022114200D05340034A1343A2
:1030300003607047005C0040BF8F0000808000008C
:10304000094B8000C0180268084B134080225201CF
:10305000114200D0534080229201114200D05340CF
:10306000034A134303607047005C00408FBF0000B9
:1030700080800000044B8000C0180268034B13409E
:10308000034A134303607047005C00400F0E0000CA
:1030900080810000044B8000C0180268034B13407D
:1030A000034A134303607047005C00400F0F0000A9
:1030B00080C00000044B8000C0180268034B13401E
:1030C000034A134303607047005C00400F0F000089
:1030D000C0800000064B8000C01803685B0405D563
:1030E0000268044B1340044A134303607047C04610
:1030F000005C00400F0F000080C00000064B800005
:10310000C01803685B0605D50268044B1340044AE7
:10311000134303607047C046005C00400F0F00007F
:10312000C0800000044BC0001B689BB2C018034B5A
:10313000C01801807047C046505C004002600040EB
:103140000C4BC0001B689BB218180B4BC0183E29D3
:1031500008D94B09CA0601D1013B9BB2074A9B0221
:10316000134304E04B08CA0700D501339B020380D8
:103170007047C046505C0040066000400080FFFF82
:1031800030B5094DC0002B68084C9BB2C3181B1901
:103190000124A14319802B68A2439BB2C018044BA1
:1031A000C018028030BDC046505C00400060004046
:1031B00004600040054BC0001B689BB2C018044B64
:1031C000C0180123994301807047C046505C0040FD
:1031D0000060004010B5FFF7EDFF10BD054BC000CB
:1031E0001B689BB2C018044BC0180123994301808F
:1031F0007047C046505C00400460004010B5FFF7C7
:10320000EDFF10BD30B500291FD1204CC000216852
:103210001F4B89B20918C9183E2A08D95309D50687
:1032200001D1013B9BB21B4D9B022B4304E0530891
:10323000D50700D501339B020B8023689BB2181879
:10324000154BC0183E2A11D819E001291DD10F498C
:10325000C0000B680E4C9BB2C3181B191A800B6878
:103260009BB2C0180C4BC01802800EE05309D20666
:1032700001D1013B9BB2074A9B02134304E0530870
:10328000D20700D501339B02038030BD505C004063
:10329000026000400080FFFF06600040054BC00058
:1032A0001B689BB2C018044BC01800888005800DB5
:1032B0007047C046505C00400260004010B5FFF708
:1032C000EDFF10BD054BC0001B689BB2C018044B3E
:1032D000C01800888005800D7047C046505C0040D3
:1032E0000660004010B5FFF7EDFF10BD002907D1C3
:1032F000094B8000C0180268084B1340084A08E0D8
:10330000012908D1044B8000C0180268034B134008
:10331000044A134303607047005C00400F0F000035
:10332000C080000080C0000010B5084B0132091AAF
:103330005210C918002A07D0437804781B0223438F
:103340004352013A0230F5E710BDC046006000402C
:10335000064B0132091A5210C918002A04D0435AE8
:10336000013A03800230F8E77047C0460060004031
:1033700010B50300002401201C7198709C60D86077
:10338000FFF71AFE2000FFF717FE2000FFF71AFED6
:103390002000FFF71DFEBF20024B00021860FFF760
:1033A0000BFE10BD340A002010B501230024044A8E
:1033B000044913600C6003211160837010BDC04686
:1033C000405C0040445C004070B57F2528240E0618
:1033D00005D529404C4321001831441803E00D4025
:1033E0006C43B8340419002A02D1A272A38004E00D
:1033F0000122E3801B0CA2722381002070BDB0B5B6
:103400007F25282480270D4065430F402C00002F86
:1034100005D01834451904190120687604E04519CF
:10342000B834B93504192F70E2607F220A40E37086
:10343000227002D16262E261226200212161616137
:10344000A161A170032B10D81800FDF7D9F902096A
:1034500005078021890005E0002103E0C02100E08C
:103460008021C9001000FFF7C3FDA37A2078002B4C
:1034700018D16378A188002B07D0FFF7ABFE207826
:10348000FFF73CFE2078202126E0FFF7B7FEA18958
:103490002078FFF755FE2078FFF71CFEC02120782A
:1034A00089012AE0FFF7E6FD20782289E188FFF70D
:1034B00067FE65782078002D11D1FFF70BFE20788C
:1034C000FFF71CFE2078FFF7F5FDC0212078890169
:1034D000FFF7B6FD29002078FFF79AFD0FE0FFF710
:1034E000F9FD2078FFF70AFE2078FFF7D3FD20785A
:1034F0000021FFF78DFD00212078FFF7A1FD0020BE
:10350000B0BD4AB270B52823002A05DA7F242140D5
:103510004B431833C41802E04B43B833C418A67A9F
:1035200065782078002E0BD1002D04D0FFF7E6FD42
:103530002078310014E0FFF7CDFD2078290020E04D
:10354000002D10D1FFF7C6FD2078FFF7D7FD2078BA
:10355000FFF7B0FD20782900FFF772FD29002078E1
:10356000FFF756FD0FE0FFF7B5FD2078FFF7C6FD2A
:103570002078FFF78FFD20780021FFF749FD00211B
:103580002078FFF75DFD002070BD73B505007F203A
:1035900001405738484328180C000100C8310A6020
:1035A00002000026CC321360C4308E6001680196A0
:1035B0008B4204D9019101995B1A136001E00193D8
:1035C000166028236343EB181A001800C2321278E1
:1035D000B830002A05D10199007889B2FFF7B0FD13
:1035E00006E0019AB93392B219780078FFF70AFE23
:1035F00028214C43C0212D19B83528788901FFF7BF
:103600001FFD002076BDF7B57F2407000020214074
:10361000573C4C433C19A262626A01900E0021762D
:10362000E3622063934204D90192019A9B1AE362F8
:1036300001E00193E062282575437D19EB1C019A96
:10364000DB7F92B2002B09D1A98BA06AFFF76CFE39
:103650000199287E89B2FFF765FD17E0287E697E13
:10366000FFF7D0FD287EFFF7BBFC430601D5298C70
:1036700000E0E98B019AA06A92B2FFF755FE282379
:103680007343FB18597E187EFFF730FE28214E4306
:10369000BF19387E0831FFF7BBFC0020FEBD0000DB
:1036A0004AB210B52823002A04DA7F2211404B4386
:1036B000183301E04B43B833C118087800280BD108
:1036C0000D4A0E4B106803400D4843400D4803431C
:1036D000136001238B700CE001234A788B70002A61
:1036E00003D01021FFF794FC03E080214901FFF78C
:1036F000A7FC002010BDC046005C0040BFBF00001A
:1037000010100000808000004AB270B52823002A03
:1037100005DA7F2421404B431833C41802E04B43A1
:10372000B833C41865782078002D08D0FFF7E6FC80
:1037300020783021FFF76CFC0023A37007E0FFF72F
:10374000C9FCC02120788901FFF77AFCA570002010
:1037500070BD000010B501710E480F4B02680F4C90
:103760001A40224302600E480E4C02681A4022435F
:1037700002600D480D4C02681A40224302600C4A58
:10378000106803400B4803431360802319430A4B1E
:10379000196010BD005C00400F0F00008080000029
:1037A000045C004081800000085C004082800000D2
:1037B0000C5C0040838000004C5C00408021044A87
:1037C000090213680B431360012383707047C046DE
:1037D000585C0040034A044B11680B4013600023FF
:1037E00083707047585C0040FF7FFFFF0023F0B5F7
:1037F00085B002AAD380B44B1A6803AB91B219808A
:10380000120400D45DE10F211A881140009100D00C
:1038100082E01C881023AD4D1C4011D12A68AC4BAE
:1038200013402B60AB4D287EFFF748FDAB6A286341
:103830001818A94BA8621B6821005B6828003AE1B0
:103840002B6802AA9BB2D380D3881B0519D5A14C43
:103850002300B8331878FFF745FD2300D0331860F4
:103860002300BC33020019889C48FFF771FD2A68C9
:103870009B4B200013402B60974B1B689B6898471D
:10388000B9E702ABDB881BB2002BB4DA2A68944B91
:10389000904C13402B602300B83318782700FFF7B3
:1038A00021FDD037021E38600BD023002600BC3328
:1038B000C83619883068FFF74BFD32683B68D3186B
:1038C0003360854B00211B6820001B689847854B9F
:1038D000C4341A682168844B92B2D2183E2909D99F
:1038E0004B099BB2C90601D1013B9BB27F499B02A8
:1038F0000B4306E04B089BB2C90701D501339BB2CD
:103900009B0213802A687A4B1340C02292015340D5
:10391000784A13432B606EE7009B02AA9F006B4B13
:10392000FF183B689BB2D380D3881BB2002B68DAA8
:1039300028243A686A4B674E13403B60009B5C4307
:10394000341923002500C2331B78B8352878002BA2
:103950000CD1FFF7C7FC051E2AD02300C834BC33A6
:10396000020019882068FFF7F3FC21E0FFF738FB1D
:10397000030028785B0406D5FFF790FC051E0ED0E7
:103980002300BE3305E0FFF79DFC051E07D0230092
:10399000C033C83419882A002068FFF7D9FC2823CF
:1039A000009A00215343F318B8331878FFF79EFCB0
:1039B0002821009B594371180A00D03213685B1903
:1039C00013600B00C8331A6852191A6004331B685D
:1039D000002B04D00800C430006885420BD2282395
:1039E000009A30005343F318B83319783A4B1B68E8
:1039F0001B68984705E0B8319BB209783000FFF7A3
:103A0000C4FD802202ABDB88134200D1F3E63A68A2
:103A10002F4B009C13403B6028277C432D4D009A80
:103A20002C19E31CDB7F01322E000192207E002B3B
:103A30000BD1FFF743FC021E206326D0019BA18B14
:103A40005F43E859FFF770FC1FE0FFF7C9FA030076
:103A5000207E5B0606D5FFF721FC021E20630CD0FA
:103A6000E18B05E0FFF72EFC021E206305D0218CC0
:103A7000019B5F43E859FFF757FC2823009A012177
:103A80005343F318187EFFF731FC2824009F674347
:103A9000F719387EFFF712FC019B38635C432B5902
:103AA0001A182A5134196368397E002B05D1300069
:103AB000094B1B685B6898479DE63000FFF7A3FD44
:103AC00099E605B0F0BDC046445C0040005C004093
:103AD0000F8F0000140600204C0000202406002058
:103AE0008F0F0000505C0040066000400080FFFF28
:103AF0008FBF000080800000F7B56B469D1D00233E
:103B00002C4C2B8023682C4E9BB22B808023316859
:103B10001B022A880B401A4201D0FFF767FE2B8850
:103B2000326813405B050BD5244B254F2360254B92
:103B300038001B681B69984700213800FFF70AFE10
:103B40002A8831680A40930401D51F4B23602B88D3
:103B50000B40DB0409D51D4B19482360194B1B682A
:103B60009B6998470020FEF767FC2B88326813405A
:103B70001B0508D5164B12482360124B1B685B6966
:103B80009847FEF73FFC2B88326813409B0506D50B
:103B9000104B0B4823600B4B1B68DB6898472B8846
:103BA00032681340DB0504D50B4B07202360FEF77A
:103BB00043FCF7BD445C0040340A0020FFFB0000DA
:103BC000140600204C000020FFDF0000FFEF000083
:103BD000FFF70000FFFD0000FFFE0000074B10B5DF
:103BE000984209D180200121800000F091FD8020C1
:103BF0000021800000F08CFD10BDC0460024014073
:103C000030B58A680D68C3681543CA68064C154309
:103C10000A69234015434A6915432A001A430B7960
:103C20005B031343C36030BD03D2FFFF0023036077
:103C300003718360C360036143617047836801223D
:103C4000002900D10222134383607047016170474D
:103C5000064B002804D080211A6809040A4302E0B8
:103C60001968034A0A401A607047C0460827014095
:103C7000FFFF7FFF064B002804D080211A68C9038C
:103C80000A4302E01968034A0A401A607047C046B6
:103C900008270140FFFFBFFF836A19438162426129
:103CA00070470000002904D08022C36892011343AA
:103CB00002E0C268014B1340C3607047FFDFFFFFA3
:103CC000002904D08022C3685202134302E0C26874
:103CD000014B1340C3607047FFFFFEFF80218268E5
:103CE00009060A43F0210300826009029A6801393B
:103CF000D20FD207002901D0002AF7D100209A68FC
:103D0000824200DB186C7047102283681343836083
:103D1000704704228368134383607047006C80B24D
:103D200070470122C368002901D0134300E0934388
:103D3000C36070470222C3689343C360C3681943DA
:103D4000C1607047CB0103D58068044B184000E088
:103D500000680840411E8841C0B27047FFFFFFFE67
:103D6000016070474368026800200A4203D019408E
:103D7000481E8141C8B2704701607047094A30B59A
:103D80008240094D2B6893431C004A680B6813431B
:103D90008A681343CA6813430A6913438340234361
:103DA0002B6030BDFE3F00001C000140002303607B
:103DB00043608360C3600C3303617047064A01238C
:103DC000002903D0834011680B4303E0834011684E
:103DD00099430B00136070471C000140044B2021E5
:103DE0001A68002801D00A4300E08A431A6070472D
:103DF000006C0040044B40211A68002801D00A439F
:103E000000E08A431A607047006C0040044B054A8A
:103E100059680A405A605A68104358607047C04653
:103E2000006C0040FFFFFFCF10B58024A4052000E8
:103E3000012100F079FC0021200000F075FC10BD8C
:103E4000084A30B58240084C4D68236893431A00F5
:103E50000B682B438D68C9682B430B438340134386
:103E6000236030BDFE0F000000740040064A0123AD
:103E7000002903D0834011680B4303E0834011689D
:103E800099430B001360704700740040074A000913
:103E90000123002903D0834051680B4303E0834092
:103EA000516899430B0053607047C046007400404E
:103EB000002382B00193054B0193019B083318182E
:103EC0000190019B196002B07047C0460074004029
:103ED000002382B00193054B0193019B1433181802
:103EE0000190019B196002B07047C0460074004009
:103EF00002682C4B1340036000230360436083601F
:103F0000C360294B984201D1284A27E0284B9842A8
:103F100001D1264A29E0274B984201D1234A2BE0C0
:103F2000254B984201D1214A2EE0244B984201D1E1
:103F30001E4A31E0224B984204D1F0211B4A090469
:103F400053682CE01F4B984204D1F021174A090511
:103F5000536824E01C4B984203D11C4A53680F213C
:103F60001DE01B4B984203D1184A5368F02116E01C
:103F7000184B984204D1154AF021536809010EE00C
:103F8000154B984204D1114AF0215368090206E00A
:103F9000124B984205D10D4AF021536809030B4397
:103FA00053607047FEFF000008000240000002401E
:103FB0001C00024030000240440002405800024011
:103FC0006C000240800002400804024000040240ED
:103FD0001C040240300402404404024058040240E1
:103FE00002680D4B10B51A400C6A8B6823430C69AC
:103FF00023434C6923438C692343CC6923434C6A94
:1040000023438C6A234313430360CB6843600B68EC
:1040100083604B68C36010BD0F80FFFF002903D091
:1040200001220368134302E00268024B134003605D
:104030007047C046FEFF000041607047406880B294
:1040400070470000837910B50168002B24D0CA4363
:10405000154B1C6814401C605C6822405A60027951
:10406000D21814682143116001689C68CA43144047
:104070009C60DC682240DA604279102A06D19A6896
:104080000A439A60DA681143D9600BE0064BD318F3
:104090001A681143196005E00379034A9B181A68EE
:1040A0008A431A6010BDC04600040140034B5B699F
:1040B0001840431E9841C0B27047C04600040140FA
:1040C000014B58617047C04600040140044B1A6917
:1040D000120603D5034A5A60034A5A607047C04625
:1040E0000020024023016745AB89EFCD8021024AC1
:1040F00013690B431361704700200240014BD860E5
:104100007047C046002002400120074BDA68024297
:1041100009D1DA680018D20605D4D86804231840FB
:10412000421E9041181A70470020024010B504004A
:10413000FFF7EAFF012805D1002C05D0FFF7E4FFC7
:10414000013CF7E7002C00D1052010BD70B506003A
:10415000B0200003FFF7EAFF042810D10225402217
:10416000B020074C000323692B4323616661236958
:1041700013432361FFF7DAFF2369AB43236170BD6B
:1041800000200240F7B50600B020002300030D0018
:104190000193FFF7CBFF042818D10127B0200C4C66
:1041A000000323693B432361ABB23380FFF7BEFFBB
:1041B000042808D1B02002360196019B2D0C1D80E9
:1041C0000003FFF7B3FF2369BB432361FEBDC04675
:1041D00000200240F7B50B680193002301249C40A6
:1041E000019A224094422CD10A79551E012D15D8EE
:1041F0005E00B44603266746BE408568B5438560C9
:104200004E798568BE402E4386608588A5438580AB
:104210008C7985889C402C43A4B2848003245D0063
:10422000AC40E443AA400668264006600668324374
:104230000260C2681440C460CA79C468AA402243BC
:10424000C2600133102BC9D1F7BD038A19400800A1
:10425000411E8841C0B27047816170470185704737
:10426000072310B50F240B409B009C409A40C910B7
:1042700089004018016AA1430162016A0A4302628F
:1042800010BD000030B5012403688A68A3430360B1
:1042900003681502114A13404A682B431343036015
:1042A0000F4A0B681A40026103680A6923430360DE
:1042B00000238360C3608B6913438022836083681B
:1042C0001202134383600368CA68134303604268A1
:1042D000044B13404A691343436030BDFFE0CF00F5
:1042E000FFFFFFF0FF7FFF07802200231202036021
:1042F00043608360C3600361426183617047012250
:104300000368002901D0134300E093430360704722
:10431000014B18607047C04600300040014B5860A8
:104320007047C04600300040014B98607047C0465F
:1043300000300040014A024B1A607047AAAA0000F0
:1043400000300040014A024B1A607047CCCC00009C
:1043500000300040837870B50178002B1BD08B10A3
:10436000104A03269B009B18FF223140B1401600E3
:10437000C0248E40A4001D59B5434678B601324092
:104380008A402A431A511F2302781A401E3B934049
:10439000044A136005E01F2319401E3B8B40024A6C
:1043A000D36770BD00E100E004E100E0064B0028A7
:1043B00004D080211A6849000A4302E01968034AC0
:1043C0000A401A607047C04600700040FFFEFFFFC1
:1043D000044B5A68002902D01043586001E0824320
:1043E0005A6070470070004010B503240C4A1368EF
:1043F000A3431843106004200A4B1A6902431A6150
:10440000012901D130BF02E0022903D120BF1A697E
:10441000824302E002211A690A431A6110BDC046B4
:104420000070004000ED00E00221054A13680B43D4
:104430001360044A491813690B43136130BF704776
:104440000070004000ED00E0034B5B681840431E25
:104450009841C0B27047C04600700040024A8000D8
:10446000136818431060704700700040064B002826
:1044700004D080211A6849040A4302E01968034AFB
:104480000A401A607047C04600100240FFFFFFFE5E
:10449000064B002804D080215A6B49020A4302E0EF
:1044A000596B034A0A405A637047C04600100240E5
:1044B000FFFFFEFF0321034A53688B4318435060FC
:1044C0007047C04600100240024B58680C23184049
:1044D0007047C04600100240F021034A53688B43E6
:1044E000184350607047C046001002408021044BC2
:1044F0001A6B8A431A631A6B104318637047C046DD
:1045000000100240F8B50C235A4D040068681840AA
:10451000FCF776F9212121210721212109212121DF
:104520001F00554B18E00F21C02368686A68800C93
:1045300008405B02861C1A4201D1504806E04D4BF0
:104540004D48DB6A19400131FCF76EF97043206079
:1045500004E04B4B00E04B4B0020236021686B686C
:104560000A00494E1B061B0FF35CDA401300626021
:104570006A685205520FB25CD340A3602A6BD20521
:1045800001D4424A06E03B4A5268520401D45A0818
:1045900000E09A08E2602A6B520601D43C4A01E02E
:1045A0008022120222612A6BD20602D4354A62614D
:1045B00000E0616103222F6B2E4E174201D1A361EF
:1045C00012E0376B1740012F01D1A1610CE0376B6E
:1045D0001740022F02D18022120204E0366B3240D3
:1045E000032A01D1274AA261C0222F6B92021742EF
:1045F00001D1E36119E01F4E376B80261740760228
:10460000B74201D1E16110E01A4E376B80261740A6
:10461000B602B74202D18022120205E0154E366B77
:104620001640964201D1174AE261C0222F6B120355
:10463000104E174215D08027336BFF021340BB4248
:1046400001D121620EE08021336B090313408B42BC
:1046500002D180231B0204E0336B1340934201D14B
:10466000084B23622B6B1B0602D4054B636200E0F0
:104670006062F8BD001002400024F40000093D0013
:10468000006CDC0200127A0094000020809FD500AC
:1046900012800000024B1A6A104318627047C0462D
:1046A00000100240064B002804D080211A6A09023B
:1046B0000A4302E0196A034A0A401A627047C04678
:1046C00000100240FF7FFFFF044B5A69002902D00F
:1046D0001043586101E082435A6170470010024064
:1046E000044B9A69002902D01043986101E082438B
:1046F0009A61704700100240044BDA69002902D029
:104700001043D86101E08243DA6170470010024033
:10471000044BDA68002902D01043D86001E08243DC
:10472000DA60704700100240044B1A69002902D079
:104730001043186101E082431A6170470010024083
:104740004211094B01D11B6808E0012A01D11B6A03
:1047500004E0022A01D15B6A00E05B6B1F2210407B
:10476000C340012018407047001002408021034AD6
:104770004904536A0B4353627047C046001002401D
:104780000023402213B501930B4B0120D96811423D
:1047900010D1012180244942D960E401D8680199EF
:1047A000013101910199A14201D01042F6D0D8689F
:1047B0004006C00F16BDC046002800408021024AB6
:1047C000D3688B43D360704700280040CA2370B57C
:1047D0000F4C05006362773B6362FFF7D1FF002354
:1047E000984211D04022A3689343A360A3682A682B
:1047F0001343A360AB6823616B6822691B041343F6
:104800002361FFF7DBFF0123FF221800626270BD06
:10481000002800400023202213B501930E4B0120F5
:104820009968114217D1CA21802459627739596297
:10483000D9689F308143D9602402D8680199013139
:1048400001910199A14201D01042F6D0FF22D8680F
:104850005A628006C00F16BD00280040014B986ABE
:104860005B68704700280040CA220721064B5A6245
:10487000773A5A629A688A439A609A681043FF228C
:1048800098605A627047C04600280040CA22044B14
:104890005A62773A5A62AC3258615A627047C046DF
:1048A000002800400023CA2213B50193114B5A621D
:1048B000773A5A62002806D080219A68C9000A43D4
:1048C0009A60012012E099680B4A80240A40042172
:1048D0009A60E401D868019A01320192019AA242D9
:1048E00001D00842F6D0D8684007C00FFF225A62B4
:1048F00016BDC04600280040FFFBFFFF002382B02A
:104900000193054B80000193019BC0180190019B0E
:10491000196002B07047C04650280040002382B0A2
:104920000193054B80000193019BC0180190019BEE
:10493000186802B07047C04650280040CA220F4B8A
:1049400010B55A62773A5A624F3A002908D00400EB
:104950009968944321439960196C02400A4308E026
:10496000040099689443A1439960196C02409143F3
:104970000A001A64FF225A6210BDC0460028004097
:104980000C4930B50D6C8A68CC680100830CD940A5
:104990000423C90B2B4002400B40134300229342D7
:1049A00005D0A3B200091840431E9841C2B21000BE
:1049B00030BDC04600280040000980B280220300BC
:1049C0001343D843034910B5CC6822401043C86054
:1049D00010BDC046002800400E4B10B598420AD1C9
:1049E000802001214001FFF793FE8020002140013B
:1049F000FFF78EFE0CE0084B984209D18020012180
:104A0000C001FFF791FE80200021C001FFF78CFE5E
:104A100010BDC0460030014000380040C12310B531
:104A200004889B010A881C40CB891343CA8813431E
:104A30000A8913434A8913438A8913432343038012
:104A40008288094B13408A881343042283800B8A8F
:104A50000382038893434A8813430380828B034B6A
:104A60001340838310BDC046FFF0FFFFFFF7FFFF39
:104A700040220388002901D0134300E093430380C0
:104A8000704700008288034B13408380838819435A
:104A900081807047FFEFFFFF032310B50F240B4009
:104AA0009B009C409840054A8910890089188A68B3
:104AB000A2438A608A681043886010BD00000140EC
:104AC00030B50388154C9BB2A04206D08022D20597
:104AD000904202D0124A904203D1702293434A88F6
:104AE0001343104A904203D00F4A0D8913402B43C1
:104AF00003804B68C3620B880385A04208D00B4B30
:104B0000984205D00A4B984202D00A4B984201D1F4
:104B10008B7A03860123838230BDC046002C01407E
:104B20000004004000100040FFFCFFFF0040014077
:104B3000004401400048014001235B4243600023E0
:104B400003800381438083727047018582827047AE
:104B500041627047C162704701220388002901D079
:104B6000134300E09343038070470630002904D0CC
:104B70008023C28F1B02134302E0C38F5B045B0CD4
:104B8000C3877047012270B57324038C9343038459
:104B9000038C8288058B92B2A5430C88254302249E
:104BA000A3431E004C888B892343104C3343A042FF
:104BB00008D00F4CA04205D00E4CA04202D00E4CA3
:104BC000A0420DD10824A343CC890E8A2343042498
:104BD000A3438C882343094C22404C8A344322430C
:104BE00082808A6805834263038470BD002C014083
:104BF000004001400044014000480140FFFCFFFF2D
:104C0000002303804380838083608381C381038288
:104C100043827047028A838900209BB2114203D0ED
:104C20001940481E8141C8B27047C94389B2018208
:104C300070478389002A02D01943818101E08B43A8
:104C40008381704710B5FFF7F4FF10BD7022838891
:104C50009343838083881943818070470122F0B594
:104C60000D0003688BB0934303604268224B04003D
:104C700013408A68134343600268204B1A404B6814
:104C8000C9680B4329690B431343036082681C4BBB
:104C900013406A69134383606846FFF733FC194B7E
:104CA000069E9C4208D0184B079E9C4204D0174B8E
:104CB000089E9C4200D0029E23682F681B0400D5EA
:104CC000760039003000FBF7AFFD390005003000F9
:104CD000FBF730FE00237F08B9425B41ED182368E3
:104CE0001B0404D50A4B2A07520F1D401543ADB2D1
:104CF000A5810BB0F0BDC046FFCFFFFFF3E9FFFF7A
:104D0000FFFCFFFF00380140004400400048004025
:104D1000F0FF000001220368002901D0134300E0E6
:104D20009343036070470000002904D08022036889
:104D30001202134302E00268014B13400360704704
:104D4000FF7FFFFFC905C90D01857047808CC00535
:104D5000C00D7047FF2310B50C121C401940FE3BDC
:104D60008B40022C01D1043002E0032C00D108302A
:104D7000002A02D00268134302E002689A4313003B
:104D8000036010BD01627047074B1B78002B0AD0EF
:104D9000162805D01E2805D0102804D1112002E0C5
:104DA000172000E01F207047380A0020014B1878B8
:104DB0007047C046380A002070B5041E074D08D061
:104DC0002B78002B01D108F061FE2C7003F0B2FAB1
:104DD00070BD012000F0B4FFF7E7C046380A00209C
:104DE000014B18707047C046380A002010B50121E9
:104DF000002009F073FB044C2078143005F006FA0B
:104E000023780133237010BD390A002010B505F056
:104E100047FA3C2806D908F02DFE08F008FB05F0FB
:104E200035FA02E0002008F029FC10BD70470000B0
:104E3000F7B509F031FA5D20FFF782FC431E984177
:104E4000884C60705C20FFF77BFC431E9841A0708B
:104E5000FFF78CFC402009F00BF805F0E3F9824DD8
:104E6000286005F0EDF9287905F0D0F92E79002EAB
:104E700007D0BFF34F8F7D4A7D4BDA60BFF34F8F72
:104E8000FEE709F02FF905F023FA00F00FFF07F015
:104E90008DFA09F09FF809F0B1FB300009F0F8FA3B
:104EA00009F0F2FE00F068FD09F0BEF9FFF79EFF81
:104EB00005F0B6FB6F4F387909F016FFFFF796FF44
:104EC000FFF794FF387907F05DFF05F0FBF9061E48
:104ED000012E2FD108F044FD00F01AFD01900028AA
:104EE0000FD006F0BDF9002809D1FFF78FFF09F0B8
:104EF00019FE1E2005F08AF9300000F081FA032027
:104F000016E006F0ADF9002804D0019800F000FC8E
:104F100002200DE005F08CF9002808D0FFF776FF9D
:104F2000232005F073F9300000F06AFA02E0300047
:104F300000F0D4FCFFF75AFF05F0E8F9002805D08F
:104F400008F00EFD08F0C2FA05F028FBFDF76EF937
:104F5000FFF74CFF07F0C4FEFFF728FF002803D03F
:104F600008F0FCFD08F092FD002009F087FBFFF738
:104F70003DFF01F031FC08F07DFD05F087F9FFF7FA
:104F800035FF05F09FF9002803D1387908F092FA2F
:104F900001E008F0B5FAFFF729FF05F04BFD00F03E
:104FA00069FCFFF723FF002009F088FA08F0FCFEF7
:104FB00008F024FF08F03BFAC82005F027F9012388
:104FC000E370E378002B15D009F034F82A4B9842AF
:104FD00010D90023E3706378002B02D03B0090339C
:104FE00004E0A378002B05D03B0091332A781A7097
:104FF00005F0D4FA05F0D0F807F082F905F092F840
:1050000009F0C4FA07F0D4F908F072FE07F036FB95
:1050100000F08AFC09F020F808F0B2FE00281ED04B
:1050200009F036F905F0E8F807F0C4F900F0E0FF00
:1050300000F0BEFA08F0C4FA00F09EFB00F00AFE91
:1050400000F0F4FD00280AD109F004FE09F0F0FC9C
:1050500007F0A0F9094804F0A3FB09F05FFA08F093
:1050600079FFAEE7390A0020A40000200400FA0509
:1050700000ED00E0F8190020B80B00002412002019
:1050800010B500211248FEF7D9FD0020FEF7F2FD11
:1050900000211048FFF760FD00210F48FFF75CFD7D
:1050A00000210E48FFF758FD00210D48FFF7E0FCF6
:1050B00000210C48FFF723F900F0E2FB002101205A
:1050C000FFF70EFB80208003FEF7FAFF10BDC046FD
:1050D00000240140002C01400044014000480140F0
:1050E000003800400058004010B504000020FFF7D1
:1050F000D9FB802000214000FFF76AF91E2C00D95F
:105100001E3C200008F06CFE80200121C001FFF74A
:1051100015FC8020C001FFF74FFC80204003FEF704
:10512000CFFF0120FFF7BEFB0220FFF797F9012018
:10513000FFF794F9FFF792FB014B186010BDC046D2
:10514000400A002070B5054C2568FFF787FB010079
:10515000280008F01FFE606070BDC046400A0020B5
:10516000012110B50800FFF7BBFA09F08DFD012100
:105170001848FFF7F1FC01211748FEF75FFD0120F9
:10518000FEF778FD01211548FFF7E6FC01211448E0
:10519000FFF7E2FC01211348FFF76AFC01211248E6
:1051A000FFF7ADF8802001210005FFF7A5FA802068
:1051B00001214000FFF70CF9012007F0A2FF0121B7
:1051C0000020FEF753FE01211020FEF74FFE08F0ED
:1051D00015FE10BD0044014000240140002C014098
:1051E00000480140003800400058004010B5A020A1
:1051F000FFF772F930BF0020FFF76EF910BD000015
:10520000F7B504008025FFF73BFF2000FFF76CFF98
:1052100008F0B0FDED056B6A224C06000021280065
:105220000093FFF795FC636A012217212000019388
:10523000FFF78BFCA020FFF74FF900F0B1FD07004E
:10524000342004F0E3FF30BF0020FFF745F96B6A1C
:10525000009ADB009B186B62656A019B01225D1955
:10526000BF212000FFF771FC6562002F10D108F00C
:1052700081FD864209D18020C001FFF781FB002813
:1052800003D1280000F020FF02E001204042F9E7AE
:10529000FFF758FFFFF764FFC82004F0B7FF024B89
:1052A0005868FEBD00400140400A002070B505006E
:1052B0000C00FFF7E5FE002007F023FF2800FFF7B2
:1052C00013FF01F05FFA08F007FF630719D590207C
:1052D0004449C00509F042F800F0F6FC4142414162
:1052E0008900C943404889B209F038F83F4940482D
:1052F00009F034F803F0DEF9E02000210003FFF7A5
:10530000E3F923070BD5002007F0F0FE0320FEF79A
:10531000D7FE0022374BDA60802252039A600121C7
:105320000800FFF761F809F071F80120FFF79EF817
:105330001920FFF705FA0028FAD00220FFF7BAF883
:10534000FFF7C2F80828FBD101210800FFF7C8F9D0
:10535000E02001210003FFF7B7F900F0E9FC00F0BD
:1053600003FB08F059F909F088F909F067F9002002
:1053700009F0A4F808F0AAFE01F018FAFFF7E2FE1F
:105380001D4EA30709D508F025FD01001B48FBF7BA
:105390004BFA7368584308F0FBFDFFF7E1FE01206C
:1053A00007F0A4FE0120044201D000F0B1FCFA2075
:1053B0008000854202D90A21280005E07468444330
:1053C00008F008FD01002000FBF72EFA08F038FE77
:1053D000FFF7ECFC002803D002F082FC08F0BEFBD3
:1053E000706870BDFDFF000000040048FFFF000072
:1053F0000008004800040140400A00200024F40096
:1054000010B5040004F026FF201E012800D0002063
:1054100008F000FB00F072FC03F008FA02F03AFE1C
:1054200009F02AFC09F012F907F064FC09F0C0FA4F
:1054300008F062FEFCF7EAFE201E012800D00020E2
:1054400008F0ECFC0220FFF709F80120FFF706F84E
:10545000FEF7EAFF10BD012070470000014B1878ED
:105460007047C046480A0020014B58607047C0464C
:10547000480A0020F8B5444D00246E6808F07EFD0F
:105480000009864200D9341A04F030FB3F4B060075
:10549000DB7E002B05D08527012B04D1C8277F0098
:1054A00001E0C827FF0008F095FC01003848FBF731
:1054B000BBF9FA2347435B01FF18BC4261D9354B66
:1054C000F3189C425DD900232B70334B6421E41800
:1054D000A41B2000FBF7A8F90600FFF767FC0028D3
:1054E0000DD0FA2120000901FBF79EF91E280AD9E8
:1054F00040002A4B1E38984205D9180003E028497D
:105500002000FBF791F9143E361A07F0F1FF07F07F
:10551000F1FB00210800FEF7A9FC00211020FEF796
:10552000A5FC2A2004F072FE0D213000FFF7BEFE1C
:105530004021002008F0E2FF002008F0A9FF07F05A
:10554000FDFD07F0A3FF07F0F3FD002804D1333081
:1055500004F05CFEFFF74AFE00F032FD08F06AFD41
:105560000123A8602B7307F0CDFB02F0AFFD03F021
:105570006BF900236B6003F065FBC82004F046FE66
:10558000F8BD01232B70F6E7480A0020F819002027
:1055900040420F00581B000060F0FFFF2602000091
:1055A000102700000022014B1A737047480A0020A0
:1055B00010B50B4C237B002B10D008F03BFDA368EB
:1055C000C01AFA239B00984208D9002301202373B4
:1055D00008F054F807F0D0FB07F06CFF10BDC04690
:1055E000480A0020F0B5040085B00578C11D01A867
:1055F000FCF7EDFF210002A80B31FCF7E8FF2100CA
:1056000003A80F31FCF7E3FF012D39D1019F0021E1
:10561000381CFBF78BFA002838D1029E0021301C81
:10562000FBF784FA002831D1039D0021281CFBF7E9
:105630007DFA00282AD1164B1A1DD6671A000832A7
:10564000D5676A46DF67617802321170A1785170C0
:105650001900108874310880E17811702179517037
:10566000190010887631088061791170A179517024
:105670001900128878310A80E27C88331A7003E0BE
:10568000022D03D104F044FF04F088FF05B0F0BD03
:10569000F819002070B5144D04002B0074331B88DA
:1056A000E11D43701B0A83702B0076331B88C37087
:1056B0001B0A03712B0078331B8843711B0A83710B
:1056C000E86FFCF779FF21002B1DD86F0B31FCF739
:1056D00073FF2B0021000833D86F88350F31FCF79A
:1056E0006BFF2B78E37470BDF819002010B5074BE1
:1056F0001A78002A01D0013A1A701A78002A03D1C8
:10570000C0321A7008F096F810BDC046A9000020FB
:105710000C4B10B51C781870002802D0012808D056
:105720000EE0588003F08EFA002C09D0A020400033
:1057300004E000229A80012C02D0402008F042FFB1
:1057400010BDC046560A0020014B18787047C0466D
:10575000560A00200022034B5A80034BC0321A70B5
:105760007047C046560A0020A9000020014B18705F
:105770007047C046A900002070B5374B5A78002A00
:1057800001D0013A5A7000255A78AA4202D140222B
:1057900001355A70314C2378002B27D0012B59D179
:1057A00063882F4A01339BB26380934206D900205D
:1057B000FFF7AEFF6388A38000236380F023628835
:1057C0009B009A4201D9FFF791FF6388402B03D9D0
:1057D000002D01D007F02BFE08F02CFC214B984245
:1057E00038D94021204804F0D1FC33E000F068F8BB
:1057F00001280AD01D4B0633DB7FDB0627D500F0DE
:1058000087F8002823D1A08014E0A0225200A388AA
:1058100001339BB2934201D2A3800BE00023A3800B
:1058200000F062F8002805D01F2004F0EFFC0120F2
:10583000FFF7E6FDA388FF2B01D9FFF757FF002DE7
:1058400001D007F0F4FD08F0F5FB094BC7E7F022A3
:105850001201DCE770BDC046A9000020560A0020F6
:10586000FF0E000000286BEE85E1A460F81900200F
:10587000005ED0B210B50020FFF74AFF10BD000057
:10588000012210B50C4C0D4B20001A70FDF7A2FF41
:105890002000FDF789FD2000FCF7FFFC802000219F
:1058A0000005FEF729FF802000210004FEF724FFF9
:1058B0000020FEF7EDFD10BD140600205C0A00205C
:1058C000044B9A78044B032A01D101325A7058785C
:1058D0007047C046140600205C0A0020014B587037
:1058E0007047C0465C0A002010B5084B01209B7829
:1058F000032B09D1802190208900C005FEF7A5FC6B
:105900000138431E9841C0B210BDC04614060020A5
:105910008021902010B58900C005FEF796FC013863
:10592000431E9841C0B210BD8021902070B58900FF
:10593000C005FEF78AFC441E631E9C41084BE4B27E
:105940001A78084D002A08D02A78002A05D00128A4
:1059500003D100221A70FCF769FC2C7070BDC046A0
:105960005C0A0020AB00002010B50221014808F0BD
:10597000C6FC10BD24F4000810B5FFF7F5FF10BDFC
:10598000BFF34F8F024A034BDA60BFF34F8FFEE73E
:105990000400FA0500ED00E0F8B52C4C2C4B2788EC
:1059A0009F4251D166882B4B9E424DD123796B2B60
:1059B0004AD1A568002D47D1E368274A013B9342AD
:1059C00042D872B63420FEF799FBFEF77FFB23889E
:1059D000BB4239D16388B34236D1204E3000FDF747
:1059E000F9FE3000FDF7E0FC2800FEF7AFFB0428CD
:1059F0002AD180252D0580235B02EB181968280029
:105A0000FEF7C0FB04281FD1154B04359D42F2D18F
:105A1000A268E3689B1A134A934215D903221342E2
:105A200001D00133FBE7104A104901209C18FEF712
:105A300065FF94210220FEF761FFC022A3080C49F4
:105A400014680C480C4AA047FFF79AFF600A002030
:105A500068B700009A5A0000FEFF030014060020F9
:105A600000080008FF07000000F8FFFFF8190020F9
:105A700042F06A8175E3094B00000108F0B5414C22
:105A800089B0237902900E006B2B11D13420FEF7E0
:105A900035FBFEF71BFBA368F5183B4B2561E818A7
:105AA000430507D1FEF752FB042803D0FEF71EFB87
:105AB000002065E000232375344B029CEB18019312
:105AC000334BEB180593277866783A007240110043
:105AD000019BA078043B0493E3780393294B5A7D00
:105AE00051400A00039942404A405A75BA191100C0
:105AF0001A7D94460A000399624482188A186946FE
:105B0000097B1A7507AA567090701770D1700799A3
:105B10001E000800049AFF23177803409F421CD1FF
:105B2000019B0132000A9A42F5D1019B059A043388
:105B3000043401939342C6D1FEF7D8FA0299124B6E
:105B4000029A2031E818029B1478D31A1B5C9C42FD
:105B5000AED101329142F6D105E00498FEF712FB76
:105B60000428E2D0A2E73369F2682033336193421C
:105B700000D9F3600020F368064A9A424041C0B25F
:105B800009B0F0BD600A002000000108040001080F
:105B900024000108FFFF00000022044B5A756B32FD
:105BA00098601861D8601A717047C046600A00207A
:105BB00010B5094B00201A796B2A0BD1D9689A6865
:105BC000914207D9054CA14204D8824202D1044A2D
:105BD00001305A8010BDC046600A0020FFFF03005C
:105BE0009A5A0000014B187D7047C046600A002099
:105BF000014B587D7047C046600A0020044B054A9F
:105C00005988914202D1102218809A757047C04677
:105C1000600A00209A5A00000020034BDA7D82427D
:105C200000D0187E7047C046600A0020024BD87D25
:105C3000431E9841C0B27047600A0020C02210B5D0
:105C4000034B18760020DA7508F008F810BDC0463E
:105C5000600A002010B5124CE37D002B08D0013BF8
:105C6000DBB2E375002B03D1FFF7A0F807F0F6FFD6
:105C7000A37D002B13D0013B61880A4ADBB2A375D8
:105C8000914203D12188084A914204D000236380C5
:105C90002380A37503E0002B01D1FFF77DFE10BD2B
:105CA000600A00209A5A000068B700000022034BE7
:105CB0001A715A801A809A757047C046600A00208F
:105CC0000020704770470000014B18787047C046AD
:105CD000790A0020014B18707047C046790A0020ED
:105CE000044B10B51B78002B03D004210248FEF7AB
:105CF000B5FA10BD790A00200004004810B504214F
:105D00000148FEF7ABFA10BD0004004800207047C0
:105D100010B50421012803D10348FEF79DFA02E0E3
:105D20000148FEF79BFA10BD0004004870470000D0
:105D300010B5024808F03EFB10BDC04634F4000820
:105D400010B50400FFF7F4FF2000FFF7E1FF044B5C
:105D5000044A3E331B789B07DB0F137010BDC0460F
:105D6000F8190020790A0020802307B59B030093CF
:105D70006A4600231371094B1B78002B01D10833AD
:105D800001E010236A4653716B4698716846FEF72E
:105D900059F980208003FEF793F907BD7C0A0020A3
:105DA000014B5878C0B270477C0A0020034B9842E0
:105DB00000D91800024B58807047C046FFFF000012
:105DC0007C0A0020014B18687047C046AC000020D8
:105DD000014B18797047C0467C0A0020014B986837
:105DE0007047C0467C0A002070B5002801DA002008
:105DF00030E0FBF7DDFC1849FBF71EFA174CA168F1
:105E0000FAF7DAFE051C207CFBF7D2FC011C281CEB
:105E1000FAF7A6FE0028EAD1637C002B0BD102F032
:105E2000FBFE002807D0A37C002B04D0281C0C49C3
:105E3000FBF716FB051C0021281CFAF77DFE002845
:105E4000D5D12379074901332371281CFBF7F4F9D5
:105E5000FAF79AFE70BDC046AED4B33A7C0A002071
:105E6000295C8F3D00007A44F0B585B003930AABFE
:105E70000290019114001F78404D002A07D01000B5
:105E8000FBF796FC3E49FAF76BFE002802D03C4B2C
:105E90002B6003E02000FBF7D3FC28603949286819
:105EA000FBF7CAF9FAF770FE00260123364C5B4275
:105EB0006061310035486670A3612677FEF748FEC1
:105EC00008F05CF8039BC01A019B20621B1A019327
:105ED000022F0BD0032F0DD12D4E2E4FF05B01F072
:105EE0009BFBC923F25BDB00F25208E0300001F0BB
:105EF00093FB04E0029804F033FC01F09DFB019851
:105F0000FBF756FC2449FAF7CDFF80231B062349F3
:105F1000C018FBF791F90021A060061CFAF720FEDB
:105F2000002802D062B6002025E0631DD87F00283B
:105F300007D11B4B002054331B78002B03D019488A
:105F400001E0FBF77DFC311CFBF78AFA1349FAF7F5
:105F5000A9FF1549FBF770F9FAF716FE637CA880D4
:105F6000002B01D0114900E01149301CFBF778FAF1
:105F7000A06062B6012005B0F0BDC046AC000020B4
:105F8000000070423B3736447C0A0020004001404C
:105F900024120020460600000024744B0080AB430E
:105FA000F8190020CDCCCC3E002474480AD7233DFC
:105FB0008FC2753D0022014B9A7470477C0A002005
:105FC0000122014B9A7470477C0A0020014B063372
:105FD000D87F70477C0A0020014B0633D877704782
:105FE0007C0A0020014B186A7047C0467C0A0020DA
:105FF00010B5FFF71BFE00280ED101F0BDFC01F02B
:1060000067FD002804D0FFF791FE01F07FFD03E05B
:10601000FFF79AFB0128F6D010BD07B50C2201ABA3
:106020001A700022987018005A70FEF793F907BD95
:1060300010B51F4C2378012B0BD100F021FC002858
:1060400002D01C4800F06CFD80221B4B92035A6169
:106050002DE080208003FEF729F8002813D0237F4D
:10606000002B02D1154B5B6AA361154AA369928884
:106070009A4204DA012300206370FFF7CEFF8020EC
:106080008003FEF71DF88020C003FEF70FF80028FC
:1060900003D08020C003FEF713F89F210948FDF7C5
:1060A00061FE002803D09F210648FDF765FE10BD64
:1060B0007C0A00202412002000040140004001401E
:1060C000AC00002000240140064A0100137F10B5F7
:1060D000D8B2002804D1012391615370FFF79DFFCE
