:020000040800F2
:1000000000400020992100087926000809220008F4
:1000100000000000000000000000000000000000E0
:100020000000000000000000000000007B26000827
:1000300000000000000000007D2600087F26000868
:1000400009220008092200081540010809220008B9
:100050000922000869480108092200089D48010892
:1000600009220008092200080922000809220008C4
:1000700009220008092200080922000809220008B4
:1000800009220008092200080000000009220008D7
:100090000922000809220008092200080922000894
:1000A0000922000809220008092200080922000884
:1000B000914A000800000000092200080B220008F5
:0400C00049020008E9
:1000C400BFF34F8F024A034BDA60BFF34F8FFEE753
:1000D4000400FA0500ED00E082B06B46DA1D00234F
:1000E40013701378032B03D813780133DBB2F7E7CB
:1000F40002B0704770B505000A4C0B4B1B892B42AC
:1001040001D001200DE0013CFFF7E6FF002CF4D103
:10011400FFF7E2FF90231022DB059A61FFF7DCFF73
:10012400200070BD214E0000003001400120074B2B
:10013400DA68024209D1DA680018D20605D4D86810
:1001440004231840421E9041181A704700200240B0
:1001540070B505000220FFF7CDFF002801D1002073
:100164000AE0064C01202570FFF7C4FF0028F6D0F2
:1001740002202378FFF7BEFF70BDC0460C3001405B
:1001840010B5B024FFF7D2FF2403012805D1002CB9
:1001940005D0FFF7CBFF013CF7E7002C00D1052089
:1001A40010BD9023F7B510220127DB050F701A85C7
:1001B40004000E00FFF790FF0320FFF7C9FF00289B
:1001C40001D100203AE0200CC0B2FFF7C1FF0028A3
:1001D400F7D0200AC0B2FFF7BBFF0028F1D0E0B28D
:1001E400FFF7B6FF0028ECD00024250001976B46EA
:1001F4001B79134F3370002301203B70FFF77AFF04
:100204000023984202D033703B78DBB23278002A64
:100214000BD122000832002C02D11D001400E6E7A5
:10022400A34014001D43202AE1D1FFF755FF90237A
:100234001022DB059A61FFF74FFF2800FEBDC04680
:100244000C300140F0B585B00093424B98427ED10A
:10025400414B99427BD102254027404CFFF790FF48
:10026400042872D13E4E33692B4333617461336980
:100274003B433361FFF784FF3369AB43336101963A
:10028400042862D180231B01E418364B9C42E5D13B
:1002940080252D0102ABDE1C0123032733703100BE
:1002A4002800FFF77EFF33780400002B05D0013FC0
:1002B400FFB2002FF3D1002411E0032731002800FE
:1002C400FFF76FFF3378002B04D1844207D001235A
:1002D400337004E0013FFFB2002FEFD1EBE7337836
:1002E400002B32D10393FFF74BFF04282DD10122B9
:1002F400019B1B4E1B691343019A136180231B0549
:10030400A2B2EB181A80FFF73BFF04280ED1164B5C
:10031400240CEB180393039B1C80FFF731FF01228D
:10032400336993433361042805D00EE00122336915
:100334009343336109E0009B0435013B0093002B98
:1003440003D080239B029D42A4D1FFF7B9FE05B0E0
:10035400F0BDC04675E3094B42F06A81000800080D
:0C03640000200240000002080200000817
:10080000054B0648033310B51B1A062B03D9044BBE
:10081000002B00D0984710BD2401002024010020A7
:10082000000000000648074910B5091A8910CB0FCF
:100830005918491003D0044B002B00D0984710BD25
:1008400024010020240100200000000010B5074C06
:100850002378002B09D1FFF7D3FF054B002B02D0E3
:10086000044800E000BF0123237010BD24010020D4
:1008700000000000B89D0108094B10B5002B03D003
:100880000849094800E000BF08480368002B02D16E
:10089000FFF7C8FF10BD064B002BF9D09847F7E7CC
:1008A0000000000028010020B89D0108240100205C
:1008B0000000000002B4714649084900095C490083
:1008C0008E4402BC7047C046002243088B4274D35A
:1008D00003098B425FD3030A8B4244D3030B8B4241
:1008E00028D3030C8B420DD3FF22090212BA030C4A
:1008F0008B4202D31212090265D0030B8B4219D32B
:1009000000E0090AC30B8B4201D3CB03C01A52414A
:10091000830B8B4201D38B03C01A5241430B8B4292
:1009200001D34B03C01A5241030B8B4201D30B037B
:10093000C01A5241C30A8B4201D3CB02C01A5241A2
:10094000830A8B4201D38B02C01A5241430A8B4265
:1009500001D34B02C01A5241030A8B4201D30B024E
:10096000C01A5241CDD2C3098B4201D3CB01C01A68
:10097000524183098B4201D38B01C01A5241430972
:100980008B4201D34B01C01A524103098B4201D360
:100990000B01C01A5241C3088B4201D3CB00C01ACD
:1009A000524183088B4201D38B00C01A5241430845
:1009B0008B4201D34B00C01A5241411A00D201466A
:1009C000524110467047FFE701B5002000F0F0F8F3
:1009D00002BDC0460029F7D076E7704703460B43B7
:1009E0007FD4002243088B4274D303098B425FD328
:1009F000030A8B4244D3030B8B4228D3030C8B4254
:100A00000DD3FF22090212BA030C8B4202D3121239
:100A1000090265D0030B8B4219D300E0090AC30B0E
:100A20008B4201D3CB03C01A5241830B8B4201D3BB
:100A30008B03C01A5241430B8B4201D34B03C01AA4
:100A40005241030B8B4201D30B03C01A5241C30A1C
:100A50008B4201D3CB02C01A5241830A8B4201D38D
:100A60008B02C01A5241430A8B4201D34B02C01A77
:100A70005241030A8B4201D30B02C01A5241CDD21C
:100A8000C3098B4201D3CB01C01A524183098B4267
:100A900001D38B01C01A524143098B4201D34B0150
:100AA000C01A524103098B4201D30B01C01A5241B3
:100AB000C3088B4201D3CB00C01A524183088B423A
:100AC00001D38B00C01A524143088B4201D34B0023
:100AD000C01A5241411A00D2014652411046704795
:100AE0005DE0CA0F00D04942031000D3404253409A
:100AF00000229C4603098B422DD3030A8B4212D35A
:100B0000FC22890112BA030A8B420CD3890192118B
:100B10008B4208D3890192118B4204D389013AD0C8
:100B2000921100E08909C3098B4201D3CB01C01A9D
:100B3000524183098B4201D38B01C01A52414309B0
:100B40008B4201D34B01C01A524103098B4201D39E
:100B50000B01C01A5241C3088B4201D3CB00C01A0B
:100B6000524183088B4201D38B00C01A5241D9D223
:100B700043088B4201D34B00C01A5241411A00D2A4
:100B80000146634652415B10104601D34042002BA0
:100B900000D54942704763465B1000D3404201B51F
:100BA000002000F005F802BD0029F8D016E77047D4
:100BB0007047C0468446081C6146FFE71FB500F039
:100BC00047FB002801D40021C8421FBD10B500F02A
:100BD000D3FA4042013010BD10B500F039FB0028B7
:100BE00001DB002010BD012010BDC04610B500F093
:100BF0002FFB002801DD002010BD012010BDC046E4
:100C000010B500F0E1FA002801DC002010BD012041
:100C100010BDC04610B500F0D7FA002801DA002058
:100C200010BD012010BDC0469E2110B5C905041C91
:100C3000FFF7F0FF002803D1201C00F0E7FD10BDF6
:100C40009E21201CC90500F05BFC00F0DFFD802325
:100C50001B069C466044F2E7F8B54A024302440092
:100C60004E00C50F240E28009B09360EC90F9209AD
:100C70008D4259D0A01B002800DC8DE0002E1AD137
:100C8000002A00D079E05A0704D00F221A40042A23
:100C900000D004335A0138D50134FF2C00D189E04B
:100CA00028009B015B0AE4B25B02E4055B0A234374
:100CB000C0071843F8BDFF2CE5D08021C9040A43C2
:100CC0001B2800DD89E016002021C640081A82405A
:100CD000511E8A4132439B1A5A0114D59B019E0929
:100CE000300001F031FA05388640844265DC041B8F
:100CF000330020200134E340041BA640721E9641BD
:100D000000243343BFE75A07BFD1DF082800FF2C78
:100D10002FD1002F00D187E08022D20313003B4364
:100D20005B025B0AFF24BFE7A11B002949DD002EFF
:100D300029D0FF2CA7D08026F60432431B2900DDE2
:100D40008DE017002026CF40711A8A40511E8A413B
:100D50003A439B185A01D6D50134FF2C64D00122A6
:100D600076491A405B080B4013438CE7031ECAD137
:100D700000207B025B0AE4B296E701380028AAD083
:100D8000FF2C9DD17FE7002A00D17CE701390029A3
:100D9000DFD0FF2CD2D176E7002820D1601CC0B272
:100DA000012853DD80279E1AFF0437402FD0D61A22
:100DB0000D0095E72800002376E7614B241A3340A5
:100DC00061E700294DD1611CCEB2012E2FDDFF2934
:100DD0002AD09B185B080C0055E701227BE7002C0A
:100DE0001BD1002B5BD0C04300280CD0FF2E7ED03F
:100DF0001B2800DD92E01D002024C540201A8340FE
:100E0000581E83412B43D31A34000D0064E7002E93
:100E100000D065E700200024ABE7FF2E67D08024D8
:100E2000E40440422343E3E7FF2400233CE7002C93
:100E300061D1002B7ED0002A00D124E79B185A01F3
:100E400000D460E73E4A0C0013401CE7002C1ED182
:100E5000002B2FD1002A66D013000D0013E70122CA
:100E600077E7002C1FD1002B5AD0C94300290BD0A3
:100E7000FF2E50D01B295FDC1F002024CF40611AB9
:100E80008B40591E8B413B439B18340062E7002B7B
:100E90001CD1002A4AD013000D00FF24F3E61300F2
:100EA00034000D00EFE6FF2E35D08024E4044942E3
:100EB0002343DFE7002A00D1E5E68027981AFF04E4
:100EC000074000D152E7D31A0D00DCE6FF24002AC8
:100ED00000D1D8E68020DB08C003034204D0D2084A
:100EE000024201D113000D00DB00FF24CBE613000A
:100EF000FF240D00C7E6002B0DD0FF24002A00D1EF
:100F0000C1E68021DB08C9030B42EDD0D2080A42BA
:100F1000EAD11300E8E71300FF24B4E6012372E7E7
:100F200013003400AFE60027002022E780270020CE
:100F3000FF03F1E61300A6E60123A5E7FFFFFF7D0F
:100F4000FFFFFFFBF0B5564644465F464D46F0B402
:100F500044024600C70F83B08846650A360EBA467B
:100F60003DD0FF2E22D00023EC00802599469B46E1
:100F7000ED0425437F3E43465C025800DB0F640AC4
:100F8000000E984636D0FF2830D080230021E400A0
:100F9000DB041C437F38301A019048464246084320
:100FA000724E800030587A4013008746002D44D19D
:100FB00008239946063B9B46DDE70122FF200024DB
:100FC0001A406402C305640AD2071C43144320007C
:100FD00003B03CBC90469946A246AB46F0BD002DFE
:100FE00020D104239946033B9B46C4E7002C17D12C
:100FF000022102E0002C0AD10121321A01924A4654
:1010000043460A435A48920082587B409746200044
:1010100001F09AF8431F76309C4040420021BAE725
:101020000321B8E7280001F08FF8431F9D400023FB
:101030007630464299469B469DE70C239946093BEC
:101040009B4698E780240022E403FF20B9E70024B0
:10105000C2468B465A465346022AAED0032A7DD05A
:10106000012A31D1012200201A400024A9E70122DF
:10107000101A1B2856DD1A4000200024A1E7802307
:10108000DB031D424BD18023DB032B435C02640A4C
:101090003A00FF2095E76D016001854230D2019A48
:1010A0000024013A01921B220127290064006D00EF
:1010B000002901DBA84201D82D1A3C43013A002A3D
:1010C000F3D16A1E95412C4301987F300028CEDD74
:1010D000620704D00F222240042A00D004342201E7
:1010E00003D5244A019814408030FE2800DD64E7CF
:1010F0000122A401640AC0B21A4062E72C00A9E7E9
:101100002D1A1A220124CFE76B02BCD500248023BC
:10111000DB031C436402640A4246FF2051E71C4281
:10112000B3D1F4E721002022C140101A8440621E8E
:1011300094410C43620704D00F222240042A00D0BD
:101140000434620104D5012201201A40002438E74A
:101150000122A401640A1A40002032E78023DB0345
:101160001C436402640A5246FF202AE77497010870
:10117000B4970108FFFFFFF7430270B542004C002F
:101180005D0AC30F4802120E460A240EC90FFF2A39
:101190000FD0FF2C11D00120A24200D070BDB5426B
:1011A000FCD18B420DD0002AF8D12800431E984173
:1011B000F4E70120002DF1D1EBE70120002EEDD165
:1011C000E9E70020EAE7C0464302F0B542005D0AC5
:1011D000C30F4802440A4800120E000EC90FFF2A2E
:1011E0001FD0FF2822D0002A09D16E426E4100286C
:1011F0000FD1002C0DD10020002D09D005E00028D2
:1012000001D1002C01D08B4213D058420123184346
:10121000F0BD002EF7D04842414101204942084329
:10122000F6E7002DDDD002204042F1E7002CDAD0B5
:10123000F9E78242E9DC04DBA542E6D80020A542BA
:10124000E6D25842434101205B421843E0E7C046E2
:101250004302F0B542004C005E0AC30F4802120E72
:10126000450A240EC90FFF2A17D0FF2C19D0002AD7
:101270000BD170427041002C17D0002807D0484293
:101280004141012049420843F0BD002C13D08B425C
:1012900014D0584201231843F6E70220002EF3D160
:1012A000E3E70220002DEFD1E1E7002DE5D100209A
:1012B000002EE9D0EDE7002DE9D1EAE7A242E8DC13
:1012C00004DBAE42E5D80020AE42DDD258424341B5
:1012D00001205B421843D7E7F0B557464E464546D6
:1012E0004300E0B446028846760A1F0EC40F002F62
:1012F00047D0FF2F25D0002380259A469946F60037
:10130000ED042E437F3F434642465D02D20F5B0011
:101310006D0A1B0E904640D0FF2B39D08022002052
:10132000ED00D20415437F3BFB1842465746591C3B
:1013300062408C4607430F2F5CD86F49BF00C959E4
:101340008F46002E45D108239A46063B9946DAE798
:10135000424602282DD0032800D1C3E0012800D046
:10136000A2E0002500260240D4B27602ED05760AFE
:101370002E43E407264330001CBC90469946A24603
:10138000F0BD002E1AD104239A46033B9946BAE7D2
:101390002A00511E8A41901CC6E70120002DC3D0AF
:1013A000280000F0D1FE431F76309D4043420020CC
:1013B000BAE70124FF2514400026D6E7300000F0EC
:1013C000C3FE431F9E400023763047429A4699460B
:1013D00099E70C239A46093B994694E78026002416
:1013E000F603FF25C1E735004846B2E73500220085
:1013F0004846AEE72904090C0800370C3604360CC1
:101400002C0C7943704367437443060C64183619F7
:10141000B14203D980214902884647440004000CA8
:10142000310409188D01681E8541890E2943350C48
:10143000ED19AD010D43290104D5012369081D40B3
:1014400063460D4319007F31002925DD680704D06C
:101450000F202840042800D00435280103D527494F
:1014600080330D401900FE29A3DC0124AD016E0A72
:101470001440CDB279E78020C003064207D0054270
:1014800005D128434602760A4446FF256DE7064308
:101490007602760AFF2568E70124611A1B2905DD1B
:1014A00014400025002660E76346CBE72E0020238A
:1014B000CE40591A8D406B1E9D412E43730704D0B8
:1014C0000F233340042B00D00436730104D50124CC
:1014D00001251440002648E70124B601760A14408D
:1014E000002542E780260124F6032E437602760A81
:1014F0001440FF2539E7C046F4970108FFFFFFF7C6
:10150000F8B54A024E0043024400240EC50F9B0961
:10151000360EC90F9209FF2E00D183E00120414011
:10152000A01BA9425CD0002800DC95E0002E1CD155
:10153000002A00D081E05A0704D00F221A40042A62
:1015400000D004335A013BD50134FF2C00D191E087
:1015500001209B015B0AE4B205405B02E4055B0AE3
:10156000ED0723432B431800F8BDFF2CE3D0802167
:10157000C9040A431B2800DD90E016002021C64064
:10158000081A8240511E8A4132439B1A5A0115D5CE
:101590009B019E09300000F0D7FD0538864084424B
:1015A0006CDC041B330020200134E340041BA64004
:1015B000721E964100243343BDE70D005A07BCD18B
:1015C000DF0801231D40FF2C33D1002F00D190E014
:1015D0008022D20313003B435B025B0AFF24BCE77B
:1015E00000284FDD002E2ED0FF2CA4D08025ED0446
:1015F0002A431B2800DD97E016002025C640281A44
:101600008240501E824132439B185A01D5D5013485
:10161000FF2C6DD001227B481A405B080340134326
:101620000D0088E7002A00D07AE777E7031EC5D1CE
:1016300000257B025B0AE4B28FE701380028A4D0C2
:10164000FF2C97D177E7002A00D174E701380028F2
:10165000DAD0FF2CCDD16EE7002821D1601CC0B2BA
:10166000012858DD80279E1AFF0437402FD0D61A54
:101670000D008FE701231D4000236EE7624B241A03
:10168000334058E7002851D1601CC6B2012E33DD2B
:10169000FF282DD09B185B0804004CE7012274E75B
:1016A000002C1AD0FF2E1FD08024E4044042234394
:1016B0001B2800DD96E01D002024C540201A834031
:1016C000581E83412B43D31A34000D005EE7002ED1
:1016D00000D05FE700250024ABE7002B44D0C043D7
:1016E0000028F0D0FF2EE3D11300FF240D0022E7E5
:1016F0000D00FF24002330E7002C5DD1002B7DD0AE
:10170000002A00D117E79B185A0100D456E73E4A39
:10171000040013400FE7002C1ED1002B2FD1002A0C
:1017200065D013000D0006E701226DE7002C1FD1E4
:10173000002B59D0C04300280BD0FF2E4FD01B28C0
:101740005EDC1D002024C540201A8340581E8341C2
:101750002B439B18340058E7002B1CD1002A49D09A
:1017600013000D00FF24E6E6130034000D00E2E64E
:10177000FF2E34D08024E40440422343DFE7002AD4
:1017800000D1D8E68027981AFF04074000D14DE722
:10179000D31A0D00CFE6FF24002A00D1CBE680202B
:1017A000DB08C003034204D0D208024201D1130077
:1017B0000D00DB00FF24BEE6002B10D0FF24002A22
:1017C00000D1B8E68020DB08C003034203D0D20872
:1017D000024200D11300DB000D00FF24ABE6130032
:1017E000FF24A8E601236EE713003400A3E60027D8
:1017F00000251EE780270025FF03E9E613009AE68F
:101800000123A6E7FFFFFF7DFFFFFFFB4302590A0D
:101810004300C20F1B0E00207E2B0EDD9D2B0DDC26
:10182000802000040143952B0BDC9620C31AD9407D
:101830000B005842002A00D118007047034BD01803
:10184000FBE7963B99400B00F3E7C046FFFFFF7FA5
:1018500070B5002830D0C317C5185D40C40F2800EC
:1018600000F072FC9E231B1A962B0DDC9622D21AD6
:1018700095406A02520AD8B25202C005520AE407E1
:1018800002432243100070BD992B19DC9922D21A11
:101890009540124A2A40690704D00F210D40042DBB
:1018A00000D00432510103D50C4B1A409F231B1A60
:1018B0009201520AD8B2DFE7002400200022DBE7C1
:1018C00005222E00121AB921D6402A00C91A8A40D0
:1018D000551EAA4135001543DBE7C046FFFFFFFB5D
:1018E00070B5041E28D000F02FFC9E231B1A962BE7
:1018F0000ADC9622D21A94406202520AD8B25202EC
:10190000520AC005104370BD992B18DC9922D21AD7
:101910009440114A2240610704D00F210C40042C4E
:1019200000D00432510103D50B4B1A409F231B1AE0
:101930009201520AD8B2E2E700200022DFE7052236
:101940002500121AB921D5402200C91A8A40541E16
:10195000A2412C001443DCE7FFFFFFFBF0B5564625
:101960004D4644465F46F0B41D000E034C00CB0FBD
:1019700087B0070092468146360B640D98466AD0C0
:101980006D4B9C4235D08022430F12041343F60066
:101990001E43C3009946694B00279C4600236444BC
:1019A00002932B0368001B0BED0F51469B46400D25
:1019B000009500D178E0604B98426CD05B46DA002D
:1019C0004B0F802109040B4313439B465346D90018
:1019D0005A4B9C46002360444246201A6A40924675
:1019E00001901F430F2F00D9B0E05548BF00C059E8
:1019F0008746374300D088E0002399460233082702
:101A000000260293CDE74346B34649460093029B26
:101A1000009A9246022B00D0BFE1002153460122DA
:101A2000002689461A40444B002136030C0D24053C
:101A3000360B2643434C1B0526401E437600D20737
:101A4000760816434846310007B03CBC904699469C
:101A5000A246AB46F0BD330003434FD0002E00D169
:101A6000BCE1300000F070FB03000B3B1C2B00DDE1
:101A7000ADE11D220100D31A08393A008F408E4093
:101A8000DA40B9461643304B00279C460023604499
:101A90004442029385E753465A4613432CD1002310
:101AA00000219B46023397E70B4320D05B46002B77
:101AB00000D19EE1584600F047FB03000B3B1C2B76
:101AC00000DD8FE102005946083A91408B461D2106
:101AD000CB1A5146D9400B0059460B4351469B4601
:101AE0009140194B9C4660444042002374E7002318
:101AF00000219B4601336FE703236DE700239946DE
:101B000001330427002602934BE703230C2702939B
:101B100047E70122D51A382D00DCB0E153461A40C0
:101B200000210023002689467EE70023802699466F
:101B300000223603004B77E7FF07000001FCFFFFA0
:101B400034980108FFFF0F80F30300005E4500D9C1
:101B500072E100D16DE1019B4D46013B01930023F1
:101B6000340002935B461E020B0E1E430B020393CE
:101B7000330C994633041B0C494620000093FEF7B2
:101B8000A3FE009B370043430600494620009846C9
:101B9000FEF720FF2C0C09040C43A04509D9E419D9
:101BA000731EA74200D95CE1A04500D859E1023E6E
:101BB000E4194346E41A49462000FEF785FE030077
:101BC000009A80465343494620009B46FEF702FF99
:101BD0002A040904120C0A4393450DD94346D2192D
:101BE000013B974200D93AE1934500D837E10223FF
:101BF0005B429C46D219E0445B46D21A4346360407
:101C000033439B460399180C0B0C1D0005930904E4
:101C10005B46090C0C001B041B0C44430491594304
:101C20006B4368431B190D0CEB189C4203D98024AD
:101C30006402A44660441C0C09041B04090C20180F
:101C40005D18824200D2DEE000D1D7E0161A029B76
:101C50009C465D1BAC459B415B42F61AB74200D1E6
:101C600006E149463000FEF72FFE009B0400434387
:101C7000494630009846FEF7ADFE2E0C09040E438F
:101C8000B04509D9F619631EB74200D9F3E0B04553
:101C900000D8F0E0023CF6194346F31A4946180012
:101CA0000293FEF711FE009B06004343494602984B
:101CB0009846FEF78FFE2D0409042D0C0D43A84510
:101CC00009D9ED19731EAF4200D9D6E0A84500D856
:101CD000D3E0023EED192404210043463143049E23
:101CE000059A3000ED1A0B040C0C1B0C584366438C
:101CF000534354439A19030C9B189E4203D98022E4
:101D00005202944664441A0C00041B04000C14197B
:101D10001B18A54250D34DD001231943964A019B6D
:101D200094466344002B00DCF3E64A0709D00F22F7
:101D30000A40042A05D00A1D8A42894149428B443F
:101D400011005A46D20108D55A468C4B1A40934688
:101D50008022D2009446019B6344894A934200DD6D
:101D60005BE65A46C908500708435602514601220D
:101D70005B058146360B5B0D0A4055E680231B034D
:101D80001E4211D05A461A420ED15E461E433603F9
:101D9000360B2A0089467B4B46E6032B00D1E1E057
:101DA000012BBBD11A40BBE61E433603360B42461D
:101DB000744B39E6002BB1D07D194A1EAF4252D97F
:101DC0001100A542A8D1039A9A42A5D1A6E7030023
:101DD0003E00283B9E400023994654E600F0B4F9AB
:101DE000203041E603005246283B9A4000219346AA
:101DF00077E6504600F0A8F920305EE6029B002608
:101E0000AB4200D323E7039E0299B446614488465F
:101E1000B045B6415B467642F619B218013B0291D5
:101E2000974213D290424FD800D18EE0161A9B46AB
:101E30000DE7894500D28EE674084B46F60735005B
:101E40005B081D434B46DB0702938BE69742EDD1BF
:101E50000399029CA142E5D93E1A9B46F7E69846B3
:101E6000CAE61E00A5E6AC423ED874D0110053E786
:101E70000121494252E71C000EE71E002BE71F2DEF
:101E80003CDC20230A0058465B1B9840EA409940FE
:101E90000243481E81415E461143EE404B0709D084
:101EA0000F230B40042B05D00B00191D99429B41B9
:101EB0005B42F61833023CD55346012200211A40FA
:101EC000002601238946AFE502235B429C46039C22
:101ED000E344A446029B63449846A045B64176423B
:101EE000F6190293B218B1E603988A1E41008142A6
:101EF000B6417642F619AD19039161E71F225242AD
:101F0000D31A5A46DA401300202D29D040225846D1
:101F1000551BA8400143481E814107200B43184030
:101F20000026002809D00F2200261A401900042A92
:101F3000BBD10B0070077602360BDB0803439946D2
:101F4000012253461A4000236EE502998D42BBD808
:101F50009B4600267BE603989842C5D3110032E7E2
:101F60000020D7E780265B4636031E433603360B38
:101F7000009A8946034B57E5FF030000FFFFFFFE71
:101F8000FE070000FF0700004200120E511C430232
:101F9000C9B270B55D0AC40F012915DDE0218900C1
:101FA0008C466D071B0B6244002128000D0D2D058A
:101FB0002B431C4D52052B40520813435B00E40792
:101FC0005B082343190070BD002A15D1002D1FD0D6
:101FD000280000F0B9F80A281DDC0B232A001B1A80
:101FE000DA4013000200153295400F4A1B03121A03
:101FF00052051B0B520DD7E7002D06D080221B0B7C
:10200000120313436D07094ACEE7084A0023CBE7C2
:1020100000220023C8E703000B3B9D402B00002556
:10202000E3E7C046FFFF0F8089030000FF070000C1
:102030004B0070B55E0D0C03751C640A420F6D05F4
:102040002243C90FC4006D0D012D2ADD3B4BF3184F
:10205000FE2B1ADC002B42DD8001451EA841D20078
:102060001043620F0243500704D00F201040042891
:1020700000D004328020C004104021D00133FF2B57
:1020800003D09201520ADBB201E0FF230022520288
:10209000520ADB0513435B00C9075B080B431800BA
:1020A00070BD002E07D01443EFD08020D2008004F2
:1020B0000243FF23D7E722430023002A03D005224F
:1020C000D208FF2B03D05202520ADBB2DFE7002A0C
:1020D00032D08020C00302435202520AD7E71800D0
:1020E000173014DB8020000402431E20C01A1F2872
:1020F0000FDC2500124BF3189D406E1EB5419A402F
:102100002B0013432200C2401A430023ABE70023F5
:10211000D5E702256D42EB1A1500DD40202809D0D5
:10212000084BF3189A401443621E94412200002386
:102130002A4398E70022F6E70022A8E780FCFFFF89
:1021400082FCFFFFA2FCFFFF1C2101231B0498421D
:1021500001D3000C10391B0A984201D3000A083938
:102160001B09984201D30009043902A2105C4018EF
:102170007047C04604030202010101010000000093
:102180000000000002780B78002A03D001300131F2
:102190009A42F7D0D01A7047134885460420016848
:1021A000090E1F22914205D11048012101601048FB
:1021B00000210160002103E00E4B5B5843500431C5
:1021C0000D480E4B42189A42F6D30D4A02E0002306
:1021D000136004320B4B9A42F9D300F055FA16F013
:1021E000DBFF02F0ADFBFEE70040002018100240CC
:1021F00000000140E89D01080000002024010020AB
:1022000024010020CC140020FEE710B501F09AFC58
:1022100010BD0000014B18687047C0464001002007
:1022200010B5024BDB68984710BDC0460C0000207B
:1022300070B504000D1E0CD011F0FAFF054B6519A6
:102240001860AC4205D020780AF06EFB01340028FB
:10225000F7D170BD4001002010B50448044B054A79
:102260000549043000F06DFB10BDC0464001002060
:102270003C0000207400002020000020802010B5C9
:102280000121000402F09AF8002001F095FF80205F
:102290000121000502F092F88020800501F086FD02
:1022A000012001F077FD012001F068FD10BD1F2322
:1022B00007B501A803701E3B4370837001F004FF53
:1022C00007BD002070470000F0B50027094B4118FA
:1022D00088420CD01C68084E621C1A60057835557F
:1022E00080246400A24200D11F600130F0E700208A
:1022F000F0BDC046140400202004002010B5FFF7F4
:1023000097FF002010BD000010B5202814D0212810
:1023100025D1144B1A780A701A68120A4A701A6882
:10232000120C8A701A68120ECA701A790A715A79D8
:102330004A719B798B7112E04A780C788B78120283
:1023400022431B0413431A00CB781B061343054A90
:1023500013600B7913714B7953718B799371002052
:1023600010BDC04604000020002070471223014821
:102370000B8070478C930108042302480B801230B5
:102380007047C0468C93010810B5044C0A000448FD
:10239000210000F0C4FC200010BDC046B90200209E
:1023A0007498010810B5044C0A000448210000F09C
:1023B000B6FC200010BDC046B90200209998010863
:1023C00010B5044C0A000448210000F0A8FC2000CD
:1023D00010BDC046B9020020AD98010810B5044CEC
:1023E0000A000448210000F09AFC200010BDC046FD
:1023F000B9020020BA98010810B5044C0A0004483C
:10240000210000F08CFC200010BDC046B902002065
:10241000C5980108704700000821054A13689BB25F
:102420000B431360136804399BB20B43136070476E
:10243000405C00400421044A13689BB28B43136044
:10244000BF231B0213607047405C004010B5244C52
:10245000072800D020702078C0B205283DD8FEF7AC
:1024600029FA030B12161F2A6368002B02D1FFF70B
:10247000E1FF32E0052331E0FFF7DCFF04232370A6
:10248000033B63602BE002236370013326E0637833
:10249000013BDBB263706378002B20D104331DE075
:1024A0001021104A13689BB20B431360052323705D
:1024B000DB18637013E06378013BDBB26370627812
:1024C000D2B2002A0BD1102006490B689BB283437D
:1024D0000B6006232370626001E00623237010BDA9
:1024E000AC020020405C0040704770477047704766
:1024F0007047002310B5DCB2A24203D9C45CCC54AF
:102500000133F8E710BD0000F0B50A000025154BB7
:102510001C88154B002A1CD08D1A465DFF251D40D6
:102520001B0A1B026E40F518ABB2082501261E409F
:10253000B44667465E10B3B2002F02D00B4B5E402C
:10254000B3B2013DEDB2002DF0D1013AD2B2013566
:10255000E0E7002D00D01C1C44544118240A4C70A4
:10256000F0BDC046D4980108FFFF000001A0FFFFA6
:1025700010B5011CFEF7B0FE10BD002382B0019023
:1025800001AA9A5CCA540133042BF9D102B07047F6
:102590000023CA5CC2540133042BFAD170470B7874
:1025A00003704B784370704782B06B46DA1D00238E
:1025B00013701378032B03D813780133DBB2F7E7DA
:1025C00002B07047024B8000C01800687047C046D8
:1025D000ACF7FF1F73B50021041CFEF7F7FA0300E8
:1025E000201C002B40D1FE218905FEF7EFFA0028C0
:1025F00036D10021201CFEF7EFFA002833D101A9C3
:10260000201C15F077FB1949041CFEF765FE1849DC
:10261000FEF722FB051C011C201CFEF793FC011C8D
:10262000281CFEF719FB02214942051C15F08EFB00
:10263000291C061C201CFEF785FC011C301CFEF723
:102640000BFB019CE30704D50A490134FEF744FE65
:102650000194019BD90FC918491015F077FB03E0CD
:10266000FE20800500E0002076BDC046BA14173F6A
:10267000A8A9D53EF304353F70477047704710B5A1
:1026800011F0B8FD10BD00000121324B82B01A6874
:102690000A431A605868304A02405A6018682F4A44
:1026A00002401A6018682E4A02401A6058682D4A83
:1026B00002400F205A60DA6A8243DA62186B2A4AB3
:1026C00002401A635A6B02208A435A6300229A60BE
:1026D00000921A680A43A0211A60C9011A680240D0
:1026E0000192009A01320092019A002A02D1009AC6
:1026F0008A42F3D11968174A890728D511201B4946
:102700000860516851605168516050681849014033
:10271000842051605168400301438020516011685A
:10272000400401431160802189041868094A084265
:10273000FBD0032051688143516051680138014347
:1027400051600C215A680A40082AFBD100E0FEE7DC
:1027500002B07047001002400CB8FF08FFFFF6FE01
:10276000FFFFFBFFFFFFC0FFACFEFFFF00200240AA
:10277000FF7FC0FF030010B50400FC331B6E1B6914
:102780009847E3780020A37010BD10B58378C3701C
:1027900004238370FC30036EDB689847002010BD73
:1027A0000300FC33DB6D10B5DB69002B00D09847CC
:1027B000002010BD002210B511004023040000F0DD
:1027C00029FE802300221900200000F023FE0023B0
:1027D00040221900200000F038FE40228021002312
:1027E000200000F032FE0123207BA370FC34236E16
:1027F0005B689847002010BD13B56946040000F0DF
:1028000071FA6B4619781F230B40012B0DD0002B5A
:1028100006D0022B0ED16946200000F006FA0EE029
:102820006946200000F0FCF809E06946200000F04D
:10283000DDF904E07F232000994300F057FF0020DA
:1028400016BD0000F8B504000D1E39D14378022BE7
:102850002BD1426B466AB24206D9921B4263816A0F
:1028600092B200F0A9F835E0876B31003800FEF72E
:10287000B1F80D1E0AD1BE4208D8E36B9F4205D2C3
:102880000A00200000F098F8E56323E02300FC3301
:10289000DB6DDB68002B04D0A278032A01D1200075
:1028A0009847200000F0B1F814E0042B12D10A4E32
:1028B000316800290ED0C9B200F072FF356009E01E
:1028C0000300FC33DB6D5B69002B03D08278032AA5
:1028D00000D198470020F8BDB402002010B50400D4
:1028E000002922D14378032B29D10200B832D369C1
:1028F000D06883420AD91B1AD361116982B2984207
:1029000000D99AB2200000F06EF818E02300FC33E2
:10291000DB6D1B69002B04D0A278032A01D12000B3
:102920009847200000F067F809E00300FC33DB6DF6
:102930009B69002B03D08278032A00D1984700209E
:1029400010BDF7B50400250017001E000191FFF728
:1029500095FC019BFC356B66EF652E66FFF75AFD13
:10296000200000F02BFD2B6E1B689847200000F024
:102970004BFF2000FFF79BFCF7BD10B50400FC34B3
:10298000E36D1B689847236E9B689847002010BD35
:10299000030010B5FC33DB6D5B689847002010BD69
:1029A00010B5130082634263022242700A000021C4
:1029B00000F04FFE002010BD10B513000A000021EA
:1029C00000F047FE002010BD13000200D83210B501
:1029D000043A53601360032242700A00002100F0A1
:1029E000FAFD002010BD10B513000A00002100F010
:1029F000F2FD002010BD042310B5437000231A001F
:102A0000190000F026FE002010BD052310B543700C
:102A100000231A00190000F0DEFD002010BD0000A8
:102A200073B5040048780D00092800D9D5E0FDF7FA
:102A300041FFACCBD4BCD45E05D49D764B88181234
:102A40000138062800D9C8E0FDF734FF04121BC77F
:102A5000C7C7C7002300FC335B6E01AE1B68207B39
:102A600031009847EB88402B30D1383B33802DE044
:102A70002600FC36F36D207B1B6A01A99847B066DF
:102A800024E0D8B2052800D9A7E02200E368FC3290
:102A9000FDF710FF03070B0F1317D8B2536E5B68D7
:102AA00012E0D8B2536E9B680EE0D8B2536EDB686A
:102AB0000AE0D8B2536E1B6906E0D8B2536E5B6968
:102AC00002E0D8B2536E9B6901A9984701AE3188E4
:102AD000002900D185E0EA88002A00D181E00B1CA2
:102AE000914200D9131C9AB23380010049E08B88CF
:102AF000002B72D1CB88002B6FD14D887F331D40C6
:102B0000A378032B69D0384B257120001D60FFF797
:102B100072FF0223002D00D10123A37061E08978A8
:102B2000314D2971012958D8A378022B02D0032BEB
:102B300007D052E0002943D0012103232170A37064
:102B400010E0002906D102232170A3702000FFF7B6
:102B50001FFF35E02178012932D02000FFF718FF50
:102B6000297921702000FFF708FF29E0CA88002199
:102B70000191012A32D1A378022B14D0032B2DD13D
:102B800021002000FFF70CFF2BE00021A37801912A
:102B9000023B012B22D801230193A3688B4201D071
:102BA00003230193022201A9EBE74B88012B18D1E3
:102BB000A3602300FC33DB6D29009B68200098474D
:102BC0002000FFF718FF0CE0A378023B012B04D88C
:102BD0004B88012B05D10023EAE70021200000F0FB
:102BE00085FD002076BDC046B402002070B5837814
:102BF00004000E00032B11D10B79012B0ED803001A
:102C0000FC33DB6D9B689847F3880500002B0AD1E5
:102C1000002808D12000FFF7EEFE04E0002120008C
:102C200000F064FD0025280070BD37B500220D00BE
:102C3000019204006B788888C1B2012B11D09342B5
:102C400029D0032B4CD1A378022B2AD0032B20D1DF
:102C50006B88002B12D14B0610D0200000F046FDEF
:102C60000CE0A378022B1CD0032B12D16B88002B15
:102C700004D14B0602D0200000F06CFD2300FC3391
:102C8000DB6D29009B68200098472000FFF7B3FE0A
:102C900026E0110021E0A278022A02D0032A03D004
:102CA0001AE04B0619D11BE02823020609D57F2222
:102CB00011404B43E3189B7E002B07D00123019367
:102CC00004E059436118BA310B78F5E7022201A9F3
:102CD0002000FFF765FE03E01900200000F006FD6C
:102CE00000203EBD037C0B70437C4B70C37C827C18
:102CF0001B02D3184B80437D027D1B02D3188B80AF
:102D0000C37D827D1B02D3189BB2CB80C36301239A
:102D10004370704710B5002100F0E8FC10BD30B5DD
:102D20000023002818D0C45C5D1C002C01D02B00AF
:102D3000F9E7DBB25B00023313800B7003234B70A7
:102D4000013B0578002D07D05A1CCD54D2B2023376
:102D50000130DBB28C54F4E730BD000070B5074C95
:102D60002068FF2807D0064B064A191D95681A6887
:102D7000A847FF232360002070BDC04670000020DC
:102D8000B80300200C000020432301480B8070474B
:102D9000A293010810B5C02300228121040000F095
:102DA00039FB802300225B008221200000F032FBEF
:102DB000882300225B000321200000F02BFB02236C
:102DC00040228121200000F040FB02234022032109
:102DD000200000F03AFB082282210323200000F0AB
:102DE00034FB064B1B689847054A40230C320321ED
:102DF000200000F0F0FB002010BDC0460C000020B9
:102E0000B8030020282370B5040059434118084D29
:102E1000D0310968074B0C35280089B21B699847E7
:102E20002A0040230321200000F0D5FB002070BDC4
:102E3000B80300200C00002010B50400812100F030
:102E400086FB0321200000F082FB8221200000F09D
:102E50007EFB024B5B689847002010BD0C000020F1
:102E6000F8B560240B7806000D001C4028D0202CFB
:102E700022D1CC884878002C18D05BB22449002B92
:102E80000BDA244B0F1D220039009B689847EA8813
:102E900039003000FFF784FD06E01F4B10C11860B9
:102EA00022003000FFF790FD00242FE0194B220094
:102EB0009B682100984729E0FFF72CFF022425E0BA
:102EC0004B780A2B13D00B2B18D0062B1ED14B8816
:102ED00012491B12212B07D1EB881A1C3A2B00D95F
:102EE0003A2292B2123105E009313A2202E001227F
:102EF00007494C313000FFF753FD07E08B78002B7A
:102F000002D1034BDC6401E0FFF704FF2000F8BDB1
:102F1000B80300200C00002070000020A2930108DC
:102F2000204A70B5136D1100002B02D001331365D8
:102F300036E0136554321278012A31D080228C6D2C
:102F40005200944200D18B658C6DCB6D9C4203D1B5
:102F5000002354310B7023E09C4202D9121B0A66F5
:102F600001E01B1B0B660B6EA2B2402B05D9403B48
:102F700040340B668C65402309E0E4188C6500241E
:102F80000C66402B01D09BB201E001244C660C0082
:102F90000125683154348A188121257000F059FBCD
:102FA000002070BDB8030020154B70B51C005434D0
:102FB00022781900012A20D11A6E002A08D1596EF0
:102FC000012903D15A668031130014E0227014E005
:102FD0009B6D9CB2402A05D94033403A8B650A6606
:102FE000402305E08D6D93B252198A6500220A666E
:102FF00068310A19812100F02CFB002070BDC04609
:10300000B8030020014B18607047C046405C004088
:10301000014B18607047C046445C0040072398434A
:10302000014B18607047C046505C0040024B800066
:10303000C018006880B27047005C00400B00054A71
:10304000800080180168044A1140194389B2016068
:103050007047C046005C00408F89FFFF084B80002E
:10306000C0180268074B13401022114200D0534091
:103070002022114200D05340034A1343036070479B
:10308000005C0040BF8F000080800000094B800082
:10309000C0180268084B134080225201114200D030
:1030A000534080229201114200D05340034A1343FF
:1030B00003607047005C00408FBF0000808000000C
:1030C000044B8000C0180268034B1340034A1343AB
:1030D00003607047005C00400F0E0000808100001C
:1030E000044B8000C0180268034B1340034A13438B
:1030F00003607047005C00400F0F000080C00000BC
:10310000044B8000C0180268034B1340034A13436A
:1031100003607047005C00400F0F0000C08000009B
:10312000064B8000C01803685B0405D50268044B99
:103130001340044A134303607047C046005C0040DC
:103140000F0F000080C00000064B8000C01803680D
:103150005B0605D50268044B1340044A1343036021
:103160007047C046005C00400F0F0000C0800000A8
:10317000044BC0001B689BB2C018034BC0180180F1
:103180007047C046505C0040026000400C4BC000DD
:103190001B689BB218180B4BC0183E2908D94B0965
:1031A000CA0601D1013B9BB2074A9B02134304E0CC
:1031B0004B08CA0700D501339B0203807047C04605
:1031C000505C0040066000400080FFFF30B5094DB4
:1031D000C0002B68084C9BB2C3181B190124A143E3
:1031E00019802B68A2439BB2C018044BC018028000
:1031F00030BDC046505C00400060004004600040AC
:10320000054BC0001B689BB2C018044BC0180123BB
:10321000994301807047C046505C00400060004008
:1032200010B5FFF7EDFF10BD054BC0001B689BB24A
:10323000C018044BC0180123994301807047C04651
:10324000505C00400460004010B5FFF7EDFF10BD7A
:1032500030B500291FD1204CC00021681F4B89B216
:103260000918C9183E2A08D95309D50601D1013BCE
:103270009BB21B4D9B022B4304E05308D50700D59E
:1032800001339B020B8023689BB21818154BC018A2
:103290003E2A11D819E001291DD10F49C0000B6841
:1032A0000E4C9BB2C3181B191A800B689BB2C01836
:1032B0000C4BC01802800EE05309D20601D1013B2D
:1032C0009BB2074A9B02134304E05308D20700D580
:1032D00001339B02038030BD505C0040026000401F
:1032E0000080FFFF06600040054BC0001B689BB2DA
:1032F000C018044BC01800888005800D7047C04678
:10330000505C00400260004010B5FFF7EDFF10BDBB
:10331000054BC0001B689BB2C018044BC018008846
:103320008005800D7047C046505C0040066000403C
:1033300010B5FFF7EDFF10BD002907D1094B800044
:10334000C0180268084B1340084A08E0012908D158
:10335000044B8000C0180268034B1340044A134317
:1033600003607047005C00400F0F0000C080000049
:1033700080C0000010B5084B0132091A5210C9185C
:10338000002A07D0437804781B0223434352013AB2
:103390000230F5E710BDC04600600040064B013228
:1033A000091A5210C918002A04D0435A013A03805E
:1033B0000230F8E77047C0460060004010B50300D7
:1033C000002401201C7198709C60D860FFF71AFEE1
:1033D0002000FFF717FE2000FFF71AFE2000FFF77E
:1033E0001DFEBF20024B00021860FFF70BFE10BD50
:1033F0006405002010B501230024044A0449136029
:103400000C6003211160837010BDC046405C004019
:10341000445C004070B57F2528240E0605D5294060
:103420004C4321001831441803E00D406C43B8347C
:103430000419002A02D1A272A38004E00122E380D1
:103440001B0CA2722381002070BDB0B57F252824FB
:1034500080270D4065430F402C00002F05D0183405
:10346000451904190120687604E04519B834B935C6
:1034700004192F70E2607F220A40E370227002D1AB
:103480006262E2612262002121616161A161A17039
:10349000032B10D81800FDF70DFA0209050780214B
:1034A000890005E0002103E0C02100E08021C9007F
:1034B0001000FFF7C3FDA37A2078002B18D16378A2
:1034C000A188002B07D0FFF7ABFE2078FFF73CFE6A
:1034D0002078202126E0FFF7B7FEA1892078FFF7AA
:1034E00055FE2078FFF71CFEC021207889012AE0D4
:1034F000FFF7E6FD20782289E188FFF767FE65780F
:103500002078002D11D1FFF70BFE2078FFF71CFE6D
:103510002078FFF7F5FDC02120788901FFF7B6FD7F
:1035200029002078FFF79AFD0FE0FFF7F9FD2078DA
:10353000FFF70AFE2078FFF7D3FD20780021FFF780
:103540008DFD00212078FFF7A1FD0020B0BD4AB21B
:1035500070B52823002A05DA7F2421404B43183315
:10356000C41802E04B43B833C418A67A65782078B3
:10357000002E0BD1002D04D0FFF7E6FD207831009E
:1035800014E0FFF7CDFD2078290020E0002D10D1B8
:10359000FFF7C6FD2078FFF7D7FD2078FFF7B0FDD5
:1035A00020782900FFF772FD29002078FFF756FDEB
:1035B0000FE0FFF7B5FD2078FFF7C6FD2078FFF795
:1035C0008FFD20780021FFF749FD00212078FFF7CB
:1035D0005DFD002070BD73B505007F2001405738A8
:1035E000484328180C000100C8310A600200002678
:1035F000CC321360C4308E60016801968B4204D9CE
:10360000019101995B1A136001E001931660282370
:103610006343EB181A001800C2321278B830002A3F
:1036200005D10199007889B2FFF7B0FD06E0019A53
:10363000B93392B219780078FFF70AFE28214C437B
:10364000C0212D19B83528788901FFF71FFD00200A
:1036500076BDF7B57F24070000202140573C4C433E
:103660003C19A262626A01900E002176E362206337
:10367000934204D90192019A9B1AE36201E00193FB
:10368000E062282575437D19EB1C019ADB7F92B21D
:10369000002B09D1A98BA06AFFF76CFE0199287E47
:1036A00089B2FFF765FD17E0287E697EFFF7D0FD40
:1036B000287EFFF7BBFC430601D5298C00E0E98B8F
:1036C000019AA06A92B2FFF755FE28237343FB18B4
:1036D000597E187EFFF730FE28214E43BF19387EF1
:1036E0000831FFF7BBFC0020FEBD00004AB210B558
:1036F0002823002A04DA7F2211404B43183301E0CB
:103700004B43B833C118087800280BD10D4A0E4B33
:10371000106803400D4843400D48034313600123E4
:103720008B700CE001234A788B70002A03D01021A3
:10373000FFF794FC03E080214901FFF7A7FC00207C
:1037400010BDC046005C0040BFBF0000101000006C
:10375000808000004AB270B52823002A05DA7F2451
:1037600021404B431833C41802E04B43B833C4180C
:1037700065782078002D08D0FFF7E6FC207830210E
:10378000FFF76CFC0023A37007E0FFF7C9FCC02122
:1037900020788901FFF77AFCA570002070BD000039
:1037A00010B501710E480F4B02680F4C1A402243AE
:1037B00002600E480E4C02681A40224302600D4817
:1037C0000D4C02681A40224302600C4A1068034004
:1037D0000B4803431360802319430A4B196010BD43
:1037E000005C00400F0F000080800000045C00407F
:1037F00081800000085C0040828000000C5C00407A
:10380000838000004C5C00408021044A0902136858
:103810000B431360012383707047C046585C00401F
:10382000034A044B11680B401360002383707047F8
:10383000585C0040FF7FFFFF0023F0B585B002AA6F
:10384000D380B44B1A6803AB91B21980120400D430
:103850005DE10F211A881140009100D082E01C88A0
:103860001023AD4D1C4011D12A68AC4B13402B6086
:10387000AB4D287EFFF748FDAB6A28631818A94BAB
:10388000A8621B6821005B6828003AE12B6802AA45
:103890009BB2D380D3881B0519D5A14C2300B83324
:1038A0001878FFF745FD2300D03318602300BC33A0
:1038B000020019889C48FFF771FD2A689B4B200085
:1038C00013402B60974B1B689B689847B9E702AB86
:1038D000DB881BB2002BB4DA2A68944B904C13405F
:1038E0002B602300B83318782700FFF721FDD0376D
:1038F000021E38600BD023002600BC33C83619885E
:103900003068FFF74BFD32683B68D3183360854B56
:1039100000211B6820001B689847854BC4341A6837
:103920002168844B92B2D2183E2909D94B099BB227
:10393000C90601D1013B9BB27F499B020B4306E0C4
:103940004B089BB2C90701D501339BB29B02138080
:103950002A687A4B1340C02292015340784A13439D
:103960002B606EE7009B02AA9F006B4BFF183B6821
:103970009BB2D380D3881BB2002B68DA28243A6824
:103980006A4B674E13403B60009B5C433419230035
:103990002500C2331B78B8352878002B0CD1FFF7EF
:1039A000C7FC051E2AD02300C834BC330200198886
:1039B0002068FFF7F3FC21E0FFF738FB03002878CD
:1039C0005B0406D5FFF790FC051E0ED02300BE3326
:1039D00005E0FFF79DFC051E07D02300C033C83467
:1039E00019882A002068FFF7D9FC2823009A0021B3
:1039F0005343F318B8331878FFF79EFC2821009B37
:103A0000594371180A00D03213685B1913600B0018
:103A1000C8331A6852191A6004331B68002B04D08B
:103A20000800C430006885420BD22823009A300079
:103A30005343F318B83319783A4B1B681B689847FF
:103A400005E0B8319BB209783000FFF7C4FD802251
:103A500002ABDB88134200D1F3E63A682F4B009C9F
:103A600013403B6028277C432D4D009A2C19E31C02
:103A7000DB7F01322E000192207E002B0BD1FFF75D
:103A800043FC021E206326D0019BA18B5F43E859B3
:103A9000FFF770FC1FE0FFF7C9FA0300207E5B060A
:103AA00006D5FFF721FC021E20630CD0E18B05E058
:103AB000FFF72EFC021E206305D0218C019B5F4383
:103AC000E859FFF757FC2823009A01215343F318C4
:103AD000187EFFF731FC2824009F6743F719387ED2
:103AE000FFF712FC019B38635C432B591A182A51CB
:103AF00034196368397E002B05D13000094B1B68EF
:103B00005B6898479DE63000FFF7A3FD99E605B096
:103B1000F0BDC046445C0040005C00400F8F0000D8
:103B20004401002050000020540100208F0F0000AD
:103B3000505C0040066000400080FFFF8FBF000027
:103B400080800000F7B56B469D1D00232C4C2B8018
:103B500023682C4E9BB22B80802331681B022A885D
:103B60000B401A4201D0FFF767FE2B8832681340E2
:103B70005B050BD5244B254F2360254B38001B6874
:103B80001B69984700213800FFF70AFE2A88316830
:103B90000A40930401D51F4B23602B880B40DB04A4
:103BA00009D51D4B19482360194B1B689B69984721
:103BB0000020FEF74BFC2B88326813401B0508D50C
:103BC000164B12482360124B1B685B699847FEF73F
:103BD00023FC2B88326813409B0506D5104B0B48FD
:103BE00023600B4B1B68DB6898472B8832681340B7
:103BF000DB0504D50B4B07202360FEF727FCF7BD40
:103C0000445C004064050020FFFB000044010020EC
:103C100050000020FFDF0000FFEF0000FFF7000072
:103C2000FFFD0000FFFE0000074B10B5984209D1D0
:103C300080200121800000F0CDFB80200021800049
:103C400000F0C8FB10BDC0460024014030B58A68B2
:103C50000D68C3681543CA68064C15430A692340BA
:103C600015434A6915432A001A430B795B03134332
:103C7000C36030BD03D2FFFF002303600371836084
:103C8000C36003614361704783680122002900D14A
:103C9000022213438360704701617047064B00287E
:103CA00004D080211A68C9030A4302E01968034A54
:103CB0000A401A607047C04608270140FFFFBFFF57
:103CC000836A19438162426170470000002904D071
:103CD0008022C3689201134302E0C268014B134083
:103CE000C3607047FFDFFFFF002904D08022C36854
:103CF0005202134302E0C268014B1340C360704795
:103D0000FFFFFEFF8021826809060A43F0210300BD
:103D1000826009029A680139D20FD207002901D0C6
:103D2000002AF7D100209A68824200DB186C7047A5
:103D3000102283681343836070470422836813430F
:103D400083607047006C80B270470122C36800290D
:103D500001D0134300E09343C3607047CB0103D508
:103D60008068044B184000E000680840411E88410C
:103D7000C0B27047FFFFFFFE01607047044B202177
:103D80001A68002801D00A4300E08A431A6070478D
:103D9000006C0040044B40211A68002801D00A43FF
:103DA00000E08A431A607047006C0040044B054AEB
:103DB00059680A405A605A68104358607047C046B4
:103DC000006C0040FFFFFFCF837910B50168002B26
:103DD00024D0CA43154B1C6814401C605C68224008
:103DE0005A600279D21814682143116001689C68F6
:103DF000CA4314409C60DC682240DA604279102A91
:103E000006D19A680A439A60DA681143D9600BE0D8
:103E1000064BD3181A681143196005E00379034A69
:103E20009B181A688A431A6010BDC04600040140FE
:103E3000034B5B691840431E9841C0B27047C046AF
:103E400000040140014B58617047C0460004014026
:103E5000044B1A69120603D5034A5A60034A5A6092
:103E60007047C0460020024023016745AB89EFCD73
:103E7000014BD8607047C046002002400120074B2C
:103E8000DA68024209D1DA680018D20605D4D86887
:103E900004231840421E9041181A70470020024027
:103EA00010B50400FFF7EAFF012805D1002C05D06A
:103EB000FFF7E4FF013CF7E7002C00D1052010BD1F
:103EC00070B50600B0200003FFF7EAFF042810D108
:103ED00002254022B020074C000323692B432361B5
:103EE0006661236913432361FFF7DAFF2369AB435C
:103EF000236170BD00200240F7B50600B02000230A
:103F000000030D000193FFF7CBFF042818D1012710
:103F1000B0200C4C000323693B432361ABB23380D8
:103F2000FFF7BEFF042808D1B02002360196019B9E
:103F30002D0C1D800003FFF7B3FF2369BB432361F2
:103F4000FEBDC04600200240F7B50B680193002378
:103F500001249C40019A224094422CD10A79551E9A
:103F6000012D15D85E00B44603266746BE4085681D
:103F7000B54385604E798568BE402E43866085884E
:103F8000A54385808C7985889C402C43A4B284808D
:103F900003245D00AC40E443AA4006682640066066
:103FA000066832430260C2681440C460CA79C468BB
:103FB000AA402243C2600133102BC9D1F7BD038A46
:103FC00019400800411E8841C0B2704781617047A6
:103FD00001857047072310B50F240B409B009C40C0
:103FE0009A40C91089004018016AA1430162016A20
:103FF0000A43026210BD000030B5012403688A68DC
:10400000A343036003681502114A13404A682B4317
:10401000134303600F4A0B681A40026103680A6980
:104020002343036000238360C3608B6913438022B2
:10403000836083681202134383600368CA68134372
:1040400003604268044B13404A691343436030BD28
:10405000FFE0CF00FFFFFFF0FF7FFF07802200237C
:104060001202036043608360C36003614261836145
:10407000704701220368002901D0134300E09343F5
:1040800003607047014B18607047C0460030004025
:10409000014B58607047C04600300040014B9860AB
:1040A0007047C04600300040014A024B1A6070471A
:1040B000AAAA000000300040014A024B1A60704773
:1040C000CCCC000000300040837870B50178002B24
:1040D0001BD08B10104A03269B009B18FF223140F7
:1040E000B1401600C0248E40A4001D59B543467847
:1040F000B60132408A402A431A511F2302781A40DF
:104100001E3B9340044A136005E01F2319401E3BE9
:104110008B40024AD36770BD00E100E004E100E09B
:10412000064B002804D080211A6849000A4302E0A7
:104130001968034A0A401A607047C0460070004080
:10414000FFFEFFFF044B5A68002902D0104358605D
:1041500001E082435A607047007000400221054A26
:1041600013680B431360044A491813690B43136126
:1041700030BF70470070004000ED00E0034B5B680B
:104180001840431E9841C0B27047C04600700040BE
:10419000024A8000136818431060704700700040A6
:1041A000044B01215A6A002801D00A4300E08A43E7
:1041B0005A627047001002408021044B1A6B8A43F8
:1041C0001A631A6B104318637047C0460010024010
:1041D000F8B50C23594D040068681840FCF76AFBD9
:1041E0001F1F1F1F1F1F1F1F071F1F1F1D000F2126
:1041F000C02368686A68800C08405B02861C1A420B
:1042000001D14F4806E04D4B4E48DB6A1940013161
:10421000FCF75AFB7043206004E04B4B00E0494B35
:104220000020236021686B680A00484E1B061B0FA4
:10423000F35CDA40130062606A685205520FB25CA8
:10424000D340A3602A6BD20501D4414A06E03B4A21
:104250005268520401D45A0800E09A08E2602A6BBE
:10426000520601D43B4A01E08022120222612A6BED
:10427000D20602D4334A626100E0616103222F6BEF
:104280002E4E174201D1A36112E0376B1740012F68
:1042900001D1A1610CE0376B1740022F02D18022BF
:1042A000120204E0366B3240032A01D1254AA26192
:1042B000C0222F6B9202174201D1E36119E01F4E19
:1042C000376B802617407602B74201D1E16110E0DA
:1042D0001A4E376B80261740B602B74202D18022B1
:1042E000120205E0154E366B1640964201D1154A72
:1042F000E261C0222F6B1203104E174215D08027A7
:10430000336BFF021340BB4201D121620EE08021DA
:10431000336B090313408B4202D180231B0204E05C
:10432000336B1340934201D1064B23622B6B1B0668
:1043300002D4054B636200E06062F8BD00100240E9
:1043400000093D0000127A00006CDC029800002099
:10435000809FD50012800000024B1A6A1043186239
:104360007047C04600100240064B002804D0802150
:104370001A6A09020A4302E0196A034A0A401A62E9
:104380007047C04600100240FF7FFFFF044B5A6990
:10439000002902D01043586101E082435A617047FE
:1043A00000100240044B9A69002902D01043986122
:1043B00001E082439A61704700100240044BDA69C1
:1043C000002902D01043D86101E08243DA617047CE
:1043D00000100240044BDA68002902D01043D86074
:1043E00001E08243DA60704700100240044B1A6912
:1043F000002902D01043186101E082431A6170471E
:10440000001002404211094B01D11B6808E0012A4B
:1044100001D11B6A04E0022A01D15B6A00E05B6BF8
:104420001F221040C3400120184070470010024076
:104430000023202213B501930E4B012099681142ED
:1044400017D1CA218024596277395962D9689F30BF
:104450008143D9602402D868019901310191019901
:10446000A14201D01042F6D0FF22D8685A628006DD
:10447000C00F16BD00280040CA220721064B5A6211
:10448000773A5A629A688A439A609A681043FF2280
:1044900098605A627047C04600280040CA22044B08
:1044A0005A62773A5A62AC3258615A627047C046D3
:1044B000002800400023CA2213B50193114B5A6211
:1044C000773A5A62002806D080219A68C9000A43C8
:1044D0009A60012012E099680B4A80240A40042166
:1044E0009A60E401D868019A01320192019AA242CD
:1044F00001D00842F6D0D8684007C00FFF225A62A8
:1045000016BDC04600280040FFFBFFFF002382B01D
:104510000193054B80000193019BC0180190019B02
:10452000196002B07047C04650280040002382B096
:104530000193054B80000193019BC0180190019BE2
:10454000186802B07047C04650280040CA220F4B7E
:1045500010B55A62773A5A624F3A002908D00400DF
:104560009968944321439960196C02400A4308E01A
:10457000040099689443A1439960196C02409143E7
:104580000A001A64FF225A6210BDC046002800408B
:104590000C4930B50D6C8A68CC680100830CD94099
:1045A0000423C90B2B4002400B40134300229342CB
:1045B00005D0A3B200091840431E9841C2B21000B2
:1045C00030BDC04600280040000980B280220300B0
:1045D0001343D843034910B5CC6822401043C86048
:1045E00010BDC046002800400E4B10B598420AD1BD
:1045F000802001214001FFF7EDFE802000214001D5
:10460000FFF7E8FE0CE0084B984209D18020012119
:10461000C001FFF7EBFE80200021C001FFF7E6FE9E
:1046200010BDC0460030014000380040C12310B525
:1046300004889B010A881C40CB891343CA88134312
:104640000A8913434A8913438A8913432343038006
:104650008288094B13408A881343042283800B8A83
:104660000382038893434A8813430380828B034B5E
:104670001340838310BDC046FFF0FFFFFFF7FFFF2D
:1046800040220388002901D0134300E093430380B4
:10469000704700008288034B13408380838819434E
:1046A00081807047FFEFFFFF01737047007BC0B24E
:1046B0007047038919400800411E8841C0B2704705
:1046C000032310B50F240B409B009C409840054AE3
:1046D0008910890089188A68A2438A608A68104311
:1046E000886010BD0000014030B50388154C9BB2B6
:1046F000A04206D08022D205904202D0124A9042B7
:1047000003D1702293434A881343104A904203D046
:104710000F4A0D8913402B4303804B68C3620B88FB
:104720000385A04208D00B4B984205D00A4B984213
:1047300002D00A4B984201D18B7A038601238382EF
:1047400030BDC046002C0140000400400010004075
:10475000FFFCFFFF004001400044014000480140D1
:1047600001235B4243600023038003814380837203
:10477000704741627047C162704701220388002977
:1047800001D0134300E09343038070470122F0B54A
:104790000D0003688BB0934303604268224B040012
:1047A00013408A68134343600268204B1A404B68E9
:1047B000C9680B4329690B431343036082681C4B90
:1047C00013406A69134383606846FFF701FD194B84
:1047D000069E9C4208D0184B079E9C4204D0174B63
:1047E000089E9C4200D0029E23682F681B0400D5BF
:1047F000760039003000FCF767F83900050030001A
:10480000FCF7E8F800237F08B9425B41ED18236804
:104810001B0404D50A4B2A07520F1D401543ADB2A5
:10482000A5810BB0F0BDC046FFCFFFFFF3E9FFFF4E
:10483000FFFCFFFF003801400044004000480040FA
:10484000F0FF000001220368002901D0134300E0BB
:104850009343036070470000002904D0802203685E
:104860001202134302E00268014B134003607047D9
:10487000FF7FFFFFC905C90D01857047808CC0050A
:10488000C00D7047FF2310B50C121C401940FE3BB1
:104890008B40022C01D1043002E0032C00D10830FF
:1048A000002A02D00268134302E002689A43130010
:1048B000036010BD70B5040014F094FC0D490B7832
:1048C000DA008A1850609460E0221206851880226F
:1048D000D201954203D9084D6A6801326A601F22ED
:1048E000013313400B70A30703D0034A93680133CD
:1048F000936070BD680500206806002010B5FFF7C2
:10490000D9FF10BD10B514F077FC10BD10B514F030
:1049100073FC10BD054B0200D968002901D1044980
:10492000D960D8688218DA607047C04668060020EF
:10493000CC14002010B5012100200FF09BFE10BD0B
:1049400070B50FF01BFD40200FF092FB0320FFF726
:10495000EDFD4C4C060021000320FFF7D7FD0EF0C3
:1049600085FB0FF0D1FC0EF09BFD0EF0F7FC0AF07A
:104970003DF90FF0B7FE00200FF062FE0FF03CFE95
:104980000FF0D4FCFFF7D6FF0FF042FF0EF05EFBF6
:104990000FF0FCFE11F0A8F810F048FF11F08CF8B1
:1049A000FFF7C8FF0FF0F0F9374D28790FF096FAAE
:1049B000FFF7C0FF0FF0EEFBFFF7BCFFFDF74CFC6D
:1049C000FFF7B8FF10F022FCFFF7B4FF287910F0D2
:1049D000ABFAFFF7AFFF0CF0EFFFFFF7ABFF0EF006
:1049E000EFFC10F001FCA64202D00EF00BFF01E03C
:1049F0000FF0C4F9FFF79EFF00F0CEF800200FF093
:104A000033FE22490320FFF781FD0AF0BFF80DF0C5
:104A1000B1F8002830D10EF067FA002801D10CF06F
:104A2000D7FD0FF015FB002828D00FF0A3FC0EF0E7
:104A3000EDFC0EF009FC0EF0DFFB00281ED110F09B
:104A4000C9FA0EF0E1FB002801D10BF0ADFF0CF02C
:104A500065FF0DF077FD0EF053FA0FF05DFD0FF0DE
:104A6000A3FE0FF017FE0EF079F801F061F90AF0DD
:104A700049FA0DF0D5FD01E00EF036FA0FF06AFBB1
:104A8000C3E7C04691A0B349C810002050500000B1
:104A900070B5154C154D2278002A17D0EB691B060E
:104AA00014D563780133DBB263709A4207D80022D1
:104AB0000F492800FFF7E6FE0023237006E07F225F
:104AC00002341340E15C2800FFF7D4FEEB699B063B
:104AD00002D50648FFF7D2FEEB691B0702D5034853
:104AE000FFF7CCFE70BDC0467806002000440040B1
:104AF00007010700014802307047C04678060020D1
:104B0000002210B5064B074C1870997820005A7097
:104B1000FFF7B0FE012204492000FFF7B3FE10BDED
:104B200078060020004400400701070030B5184D0A
:104B300089B0040028000FF023FA802001218002B0
:104B4000FFF73CFC00211348FFF786FE062C00D936
:104B50000024A4002C19236902A9029300230D4804
:104B6000039304930593079308330693FFF70EFE10
:104B700001210848FFF766FE1C2301A803701A3BB9
:104B80004370013B8370FFF79FFA09B030BDC04608
:104B9000E89301080044004010B5034B0633D87F6A
:104BA000FFF7C4FF10BDC046C810002028300078B1
:104BB0007047030028331A7800238A4201D98900FC
:104BC0000B5818007047F8B505000E1E11D00024D0
:104BD0002B0028331B78A3420BD9A7007179785991
:104BE00001F0DFFA002801D0785903E00134E4B283
:104BF000EEE70020F8BDF7B500240500270000917E
:104C000001922B0028331B78A34215D9A600002F50
:104C100006D1019AAB599B1A5A425341DFB208E0C0
:104C2000009BA859597901F0BCFA002801D0A85975
:104C300003E00134E4B2E4E70020FEBD0023F0B558
:104C400005001E0085B0029101920370127A039252
:104C5000039B9E422ED03100019801F071FA009022
:104C6000047D002C0AD0731CDEB2F1E7029AA30087
:104C70009F58019BBB4207D10134E4B2029B283309
:104C80001B78A342F2D812E0380001F02DFB002877
:104C9000F2D0009B3800597901F06CFAFF28EBD074
:104CA0002B785A1C2A70009AEB1852795A702B787C
:104CB000092BD8D9280005B0F0BDF8B505000E00C5
:104CC000170000242B0028331B78A3420BD9A30024
:104CD0005859B84207D0717901F063FA002804D11D
:104CE0000134E4B2EEE7002000E00120F8BD70B529
:104CF00005000E0000242B0028331B78A34207D99F
:104D0000A30031005859013401F082FAE4B2F2E70D
:104D100070BD70B505000E0000242B0028331B78F1
:104D2000A34208D9A300585903F07CF9B04204D03B
:104D30000134E4B2F1E7FF2000E0200070BD10B5BF
:104D40000400FFF7E6FF230028331A78002382428D
:104D500001D980000359180010BDF8B50500030003
:104D6000283529332A781B7804000E0000209A4247
:104D700011D22000FFF7E3FF00280CD16C30FFF7C1
:104D8000BDFD0700310001F092F938002B789A0040
:104D9000013317512B70F8BD70B50500FFF7B9FF4F
:104DA000041EFF2C17D083005E59002E05D0300062
:104DB00004F0EAFB3000FFF7A5FD290028310B784D
:104DC000013B9C4206DAA200AA1850680134106028
:104DD000E4B2F6E70B7070BDF8B5050028352B7806
:104DE0000700012B12D901242B78A3420CD9A30070
:104DF000DE59002E05D0300004F0C6FB3000FFF76E
:104E000081FD0134E4B2EFE701232B70F8BD0023EC
:104E10000200283212789A4209D99A0011580A8C55
:104E2000002A01D0013A0A840133DBB2F0E770476F
:104E3000F0B585B0029008000E0003F0F3F8010011
:104E40000298FFF766FF00250390B575F577019589
:104E5000337AAB424FD92900300011F0E9FA041E31
:104E600046D0037D002B43D11F00039AFBB293422F
:104E70003ED2029A283212789A4237D9029ABB005F
:104E8000D058002832D0864230D0210001F05CF9A1
:104E9000FF282BD00923019962794B432100F31895
:104EA0009A75503109781A009973210051310978A7
:104EB000D9732100523109781974210053310978CE
:104EC00059742100543109789974230055331B78A3
:104ED000D374230056331B781375230057331B7884
:104EE0005375019B002B06D1013301930137BCE7B9
:104EF0000135EDB2ACE705B0F0BD10B52D3003784B
:104F00000C000121002B00D10321200011F054FEE0
:104F1000200011F047FF200009F0EEFF09F09EFE8F
:104F200010BD70B506000024330028331B78A3425F
:104F30000BD9A500751929683000FFF779FF0134F6
:104F4000286802F0DFFCE4B2EEE770BDF8B50600B9
:104F500000240127330028331B78A3420BD9A30078
:104F60009D59013428004C3502F0CEFB2B78E4B279
:104F70007B402B70EEE73000FFF7D3FFF8BD70B534
:104F8000050000242B0028331B78A34208D9A30076
:104F9000585901F0A9F9002803D00134E4B2F1E72F
:104FA000012070BDF8B506000024330028331B78BB
:104FB000A3420FD9A5007519286801F095F9071EBD
:104FC00002D00134E4B2F0E7286804F0A7FA002820
:104FD000F7D000E001273800F8BD0000F7B5002445
:104FE0000700250001913B0028331B78A34211D90B
:104FF000A6000199BE195031306803F015FC002855
:1050000005D0306803F0D2FB854200D205000134A0
:10501000E4B2E8E7272D00D8014D2800FEBDC046C8
:1050200060EA000070B50024060025003300283334
:105030001B78A34209D9A300985903F0B7FB854216
:1050400000D205000134E4B2F0E7272D00D8014D6D
:10505000280070BD60EA0000F7B5002407002500B5
:10506000019100943B0028331B78A3421BD9A60072
:105070000199BE195031306803F0D6FB00280FD0DB
:1050800033685B7B5AB2002A01DB002010E07F22EC
:1050900013402A1C9D4200D21A1C0123D5B2009352
:1050A0000134E4B2DEE7009B002BEED080202843E1
:1050B000FEBDF7B5002407002500019100943B00D8
:1050C00028331B78A3421AD9A600BE19019930686B
:1050D00001F03AF8FF280FD033685B7B5AB2002A00
:1050E00001DB002010E07F2213402A1C9D4200D2E9
:1050F0001A1C0123D5B200930134E4B2DFE7009B10
:10510000002BEED080202843FEBDF7B50700002419
:1051100001913B0028331B78A34210D9A5007D19CB
:10512000286801F0E1F8061E02D10134E4B2F0E78C
:105130000199286801F01EF8FF28F6D000E000264B
:105140003000FEBDF8B506000F0000243300283300
:105150001B78A34211D9A5007519286801F0C4F87D
:10516000002802D00134E4B2F0E73900286801F0E9
:1051700001F8FF28F6D0012000E00020F8BD70B54E
:1051800005000E0000242B0028331B78A34209D908
:10519000A3003100585903F047FB002803D1013424
:1051A000E4B2F0E7002070BDF8B505000F00002460
:1051B0002B0028331B78A3420BD9A6003900705965
:1051C00000F0C2FFFF2801D0705903E00134E4B2BF
:1051D000EEE70020F8BDF8B505000E00FFF7E4FF8C
:1051E000002813D104002B0028331B78A3420DD9CB
:1051F000A700785901F078F8002804D131007859D7
:1052000000F0D8FF02E00134E4B2ECE7F8BDF7B5F6
:1052100005000024009101922B0028331B78A34243
:1052200012D9A700EE190099306800F08DFFFF2811
:1052300007D00199306800F087FFFF2801D0785926
:1052400003E00134E4B2E7E70020FEBD70B50600DC
:105250000024330028331B78A3420AD9A500A8599B
:1052600001F095F8022801D1A85903E00134E4B215
:10527000EFE7002070BD0000030010B528331B7855
:105280000400012B06D1006801F081F8002801D14B
:1052900008480DE008480AF0A4F9002804D02000CE
:1052A000FFF7D4FF002801D1044801E0FA20800173
:1052B00010BDC046581B0000580C0020EC2C00000C
:1052C000F0B593B01D0018AB1B880290079319AB83
:1052D0001B78080014000E00039302F0C8FE0100C2
:1052E00009A812F0B1FA039B2A002100300002F055
:1052F0009BF90490002839D0300002F0B8FE002459
:1053000001000CA812F0A0FA099A0C9B9B1A0593B5
:105310000D9A0A9BD31A0693029B28331B78A3424B
:1053200024D9029BA700DB191868019386421AD082
:10533000079B01222341134215D002F098FE0FADC6
:105340000100280012F080FA2A000CAB83CA83C344
:10535000069B6A680F999A180198059B006859186E
:10536000039B02F061F90134E4B2D5E7049813B06D
:10537000F0BDF0B585B003930AAB1B7807000800B9
:10538000161C0D00019302F070FE311C041C019AE2
:10539000280002F0E9F9061E1ED0280002F065FE82
:1053A000211CFCF7ADF8002402903B0028331B7849
:1053B000A34210D9A300D859854209D0039B0122EA
:1053C0002341134204D0019B029A310002F06CFB8E
:1053D0000134E4B2E9E7012005B0F0BDF7B50600FD
:1053E0000D00002401270192330028331B78A342CB
:1053F0000CD9A3009859A84205D0019B23413B42F8
:1054000001D002F0A7FE0134E4B2EDE7280002F07B
:10541000A1FEF7BD02000023303253751370153220
:105420001375D3758530143213760370704770B5D9
:1054300005000600040034358C36002328001A00CD
:10544000190012F0FDF9002328001A001430190089
:105450002C3512F0F5F9AE42EFD100250A22631C7B
:10546000FF331D70A31CFF331D70D63B1D705D7094
:10547000033B1D705D715A702000FFF7CBFF2900C0
:105480002000FFF76AFC200070BD0000F7B50500A2
:1054900006000F0000243035019529787B798B4276
:1054A00014D012480AF010FB002800D128700134F3
:1054B000E4B22C35022CF0D1019B1B781C1E05D0C8
:1054C00033005C331C7863425C41E4B22C236343B9
:1054D000F61833007A7930331A70320000235936C7
:1054E0004532137020003370FEBDC046580C0020BA
:1054F000F7B5019201221F1C2C2311404B43C31806
:105500000C001900453109780600002925D0190042
:1055100059310978002922D01D6C0021281CFBF785
:105520006FFB002800D100252C236343F3185B6D2B
:10553000281C191C0093FBF74FFB0023002801D007
:105540000123009D291C381C0093FBF759FB002800
:105550001AD11423009A534304E00B0000E0130017
:1055600014214B432C214C431C19361933000122C2
:1055700045331A70019A113B13CA13C33764089854
:1055800002F050FD44363070F7BD00000B00F0B55E
:1055900093B00AAA503305000C0043CB43C21B68EA
:1055A00006A913600F23FF225B18142000211A7034
:1055B0000FF0D4F82800FFF7E2FC00230293984292
:1055C00003D0200010F0A0FB0290200010F0F8FDA6
:1055D00001230793002803D1200010F095FB0790CA
:1055E00000230693029B002B04D021002800FFF724
:1055F0004DFF06900027494B039705932B00283356
:105600001B78BB4245D9079B002B14D0BE00AE19B6
:1056100031682800FFF70CFC220000235D32137074
:1056200021003068049205F0B1F8049B03901B78C8
:10563000002B2BD007E0BB006179585900F0B1FD79
:105640000028E3D122E02100306802F0F9FE029B3D
:105650000490002B08D02200336850320093069942
:10566000031C2800FFF744FF04990598FBF7C8FACC
:1056700000280BD021000E2250310AA813F0C6FDDD
:105680000F2306AA9B181F70049B05937B1CDFB297
:10569000B4E70F2306AA9B181B78FF2B28D02600FF
:1056A00010220AA90EA8503613F0B0FD0E220EA942
:1056B000300013F0ABFD029B002B17D03100280007
:1056C000FFF75DFD002802D1200011F047F821000E
:1056D0002800FFF712FC002114200FF03FF80DF016
:1056E00035FB002802D120000CF00CFA01230393B3
:1056F0002800FFF744FC002802D0200010F02BFC0B
:1057000000216B1C0235FF33FF35197014202970FE
:105710000FF024F8039813B0F0BDC046D059194BD0
:10572000030010B530334C791B78A34206D1142105
:105730005143411845310B78002B0ED103005C33E7
:1057400019780023A14213D114215143411871311A
:10575000097899420CD0013300E0002301242C2168
:1057600022401334624359435318C01803003433A2
:10577000180010BDF7B505009C46030079352F7859
:1057800008AC78332478099E01938F4201D000271A
:105790001F70019B29701D78052D47D81421634681
:1057A000694341180A730B80002C19D07378327842
:1057B0001B02D3184B80F378B2781B02D3188B806E
:1057C000737932791B02D318CB80F379B2791B023B
:1057D000D3180B81737A327A1B02D3184B8104E001
:1057E000FA23DB004B80CC804C8114246C430419D9
:1057F0004888FCF775F8061CE088FCF771F8071C70
:105800006089FCF76DF8011C381CFBF725FAFE21B6
:105810008905FBF721FA011C301CFBF793FB0449B7
:10582000FBF790FB019B013520611D70F7BDC04661
:105830000000FA4401230371002370B50360002ABD
:1058400020D053790A007832157800240A00E6B295
:10585000B54217D9167B9E4211D11688002E0ED064
:1058600014236343C9180B69CA8803600123002A03
:1058700003D14B895A1E9341DBB2037102E001341C
:105880001432E4E770BD02000023783279301370DF
:105890000370704710B504480AF0AEF80021FFF716
:1058A00088F9806B80B210BD580C002010B5041E22
:1058B00006D004480AF0A0F80021FFF77AF98463C3
:1058C00010BDC046580C002010B504480AF094F8EA
:1058D0000021FFF76EF9C06B80B210BD580C00209C
:1058E00010B5041E06D004480AF086F80021FFF720
:1058F00060F9C46310BDC046580C002010B50448C0
:105900000AF07AF80021FFF754F9006C80B210BD5C
:10591000580C002010B5040003480AF06DF800216F
:10592000FFF747F9046410BD580C0020F0B5584C3F
:1059300085B000902000039109F093FE01940028A7
:1059400055D0544B1A780132D2B2904200D801227D
:105950001A701978019809F068FE071E4AD0437939
:1059600000240293036D9EB2436D01989DB20AF02C
:1059700043F83900FFF718FC00F006FDA0420DD1F6
:105980003B005D331B780134002B07D034002C43DF
:1059900024B2002C01D0040000E00126380010F0F1
:1059A000DBF9002805D03B005D331B78002B00D1CC
:1059B0000124380010F004FC002802D002231C430C
:1059C000E4B20421380010F007FA002802D00423C2
:1059D0001C43E4B201980AF00FF8FFF7D0FA002850
:1059E0000CD0019809F0EEFD002814D106E0012446
:1059F00005001EE004000500060002906A46009BB8
:105A0000127A5E70DD70360A2D0A1A709E701D7152
:105A10005C7105B0F0BD01980AF001FB051E04D0D1
:105A2000280010F071F9002806D1012300251C433D
:105A3000E4B22E000295E1E76B790293039B002B01
:105A400005D12B6D6D6D9EB2ADB2052317E0039BA2
:105A5000042B17D8019809F0CFFF0021FFF7A9F810
:105A600003990139C9B202F0D1FA05000068FBF7C9
:105A7000CDFE86B26868FBF7C9FE452385B21C439C
:105A8000E4B2BBE7452300251C43E4B22E00B5E792
:105A9000580C0020FA060020F0B5A24C93B00490F8
:105AA0002000069109F0DDFD01002000002900D151
:105AB00090E0069B002B07D19B4A13780133DBB2A1
:105AC000994200D801231370984B5A780132D2B210
:105AD000914200D801225A70597809F0A6FD00249D
:105AE000061EA64200D17FE0030069331A78022126
:105AF000059202001C70643213780B4202D08B4373
:105B000013700834737931000AA8079310F078FBFA
:105B10000B9B844801930AAB1B7B0A9F03930AAB40
:105B20005B7B0C9D099309F067FF3100FFF73CFB9D
:105B300000F02AFC00280CD133005D331B78002BC9
:105B400004D0019B3B4304D1012702E001231C4305
:105B5000E4B2300010F000F9002807D033005D33C4
:105B60001B78002B02D101331C43E4B2300010F04B
:105B700027FB002802D002231C43E4B2042130009A
:105B800010F02AF900280AD080213000490010F0D6
:105B900023F90423002800D014231C43E4B2082175
:105BA000300010F019F9002802D020231C43E4B281
:105BB0005C4E300009F006FD0890300009F01CFF33
:105BC000FFF7DDF9002842D1300009F008FD002878
:105BD0003DD1A5E00124FF232600039102930D008F
:105BE00001910F00079108E0FF2304000126050042
:105BF000070003900293019007906A46049B127F6E
:105C0000591C1A703800FCF7B8FC049B0198591D08
:105C1000FCF7B3FC049928000931FCF7AEFC049BA7
:105C200008225C736B469A5600239A4203DB029A61
:105C30001F3301321340022E01D180221343049AF4
:105C4000937313006A46127BDA7313B0F0BDFF231F
:105C50000293059B002B1DD1089B002B1AD0324BC1
:105C60003048197809F0E1FC061E59D010F04CF8C4
:105C7000002855D073790793069B002B0CD1310077
:105C80000EA810F0BDFA0F9B0E9F01930523109DE7
:105C90001C43E4B2099EB0E7089B012B05D0022B00
:105CA00022D001231C43E4B236E045231C43069B6B
:105CB000E4B2042B30D81B4809F09EFE0599FEF78C
:105CC00078FF06990139C9B202F0A0F90500006811
:105CD000FBF79CFD07006868FBF798FD0190A8683A
:105CE000FBF794FD0500D5E745231C43069BE4B272
:105CF000022B11D80B4809F07FFE069A3100013AB9
:105D0000D2B2FFF70DFD002806D043680768019363
:105D10008568037C0293BDE7059D01952F00B9E7D7
:105D2000FF23F7E7580C0020A8000020FA06002007
:105D300010B5034809F060FEFFF769F810BDC046D2
:105D4000580C0020F8B5171C0D1C041CFCF710FCA7
:105D5000061C281CFCF70CFC011C301CFAF77CFF0D
:105D6000061C381CFCF704FC011C301CFBF7C8FBAC
:105D7000211C061C201CFAF76FFF291CFBF7ACFA4C
:105D8000011C301CFBF7DEF80B49041CFAF724FF5A
:105D9000002809D1FE21201C8905FAF731FF0028CF
:105DA00003D0FE24A40500E0034C201C12F092F85E
:105DB0000249FBF791FAF8BD000080BFED2E654265
:105DC00000230022811CC263CB8742640200483258
:105DD000836043610362C36213707047F0B50500CE
:105DE00085B00C0017001E1E5FD010000FF0B4FF2E
:105DF00000285AD13B6E002B57D0326E002A54D067
:105E000024011B191A685B683800019202930FF095
:105E1000C6FF002849D030000FF09EFF002844D173
:105E200030000FF0BCFF00283FD0336E1C196068B3
:105E3000FBF70EFD03900198FBF70AFD0190206827
:105E4000FBF706FD011C0198FBF75AFB1849FBF70D
:105E500079F8FCF78DFB041C0298FBF7F9FC039919
:105E6000FBF74EFB1249FBF76DF8FCF781FB011CB9
:105E7000201CFAF7F1FEFCF7ADFB3100041C3800E2
:105E800010F00EF8FBF72CFD0949FBF75BF8211C1D
:105E9000FBF736FBFCF76CFB011CE86BFAF7DCFE4A
:105EA000E8630235EB8F0133EB8705B0F0BDC046E8
:105EB00000007A44F0B585B00700019102921D1EE2
:105EC00030D000292ED00024019B1B7AA34229D96F
:105ED0002100019810F0ACFA061E20D085421ED099
:105EE0000FF03AFF00281AD12100019810F0A0FA13
:105EF000010028000FF0D4FFFBF7F2FC796C03904F
:105F0000081CFAF7A9FE011C0398FAF779FE00288D
:105F100005D133002A0002993800FFF75FFF631CA8
:105F2000DCB2D1E705B0F0BD030070B5303304003A
:105F300018780A00002814D0012801D132340FE06B
:105F40002500431EDBB232333135E3182A78914203
:105F500007D001359D42F9D10DF0A2FF241831344C
